:020000040800F2
:1000000000000120F51D0008051A0008071A000865
:10001000091A00080B1A00080D1A00080000000059
:100020000000000000000000000000000F1A00089F
:10003000111A000800000000131A0008151A000821
:100040003D1E00083D1E00083D1E00083D1E000824
:100050003D1E00083D1E00083D1E00083D1E000814
:100060003D1E00083D1E00083D1E00083D1E000804
:100070003D1E00083D1E00083D1E00083D1E0008F4
:100080003D1E00083D1E00083D1E00083D1E0008E4
:100090003D1E00083D1E00083D1E00083D1E0008D4
:1000A0003D1E00083D1E00083D1E00083D1E0008C4
:1000B0003D1E00083D1E00083D1E00083D1E0008B4
:1000C0003D1E00083D1E00083D1E00083D1E0008A4
:1000D0003D1E00083D1E00083D1E00083D1E000894
:1000E0003D1E00083D1E00083D1E00083D1E000884
:1000F0003D1E00083D1E00083D1E0008251A000890
:100100003D1E00083D1E00083D1E00083D1E000863
:100110003D1E00083D1E00083D1E00083D1E000853
:100120003D1E00083D1E00083D1E00083D1E000843
:1001300000000000000000000000000000000000BF
:1001400000000000000000000000000000000000AF
:10015000000000000000000000000000000000009F
:10016000000000000000000000000000000000008F
:10017000000000000000000000000000000000007F
:10018000000000000000000000000000000000006F
:10019000000000000000000000000000000000005F
:1001A000000000000000000000000000000000004F
:1001B000000000000000000000000000000000003F
:1001C000000000000000000000000000000000002F
:1001D000000000000000000000000000000000001F
:0401E0005FF8E0F1F3
:1001E40010B5054C237833B9044B13B10448AFF36D
:1001F40000800123237010BD0C00002000000000CB
:10020400881E000808B5034B1BB103490348AFF32C
:10021400008008BD0000000010000020881E0008B7
:1002240038B50E4B054618784FF47A73B3FBF0F3E8
:100234000B4A1068B0FBF3F000F048FA044658B9D2
:100244000F2D09D8024629464FF0FF3000F0FEF981
:10025400044B20461D6038BD012038BD000000203D
:100264000800002004000020074A08B51368032092
:1002740043F01003136000F0D7F90020FFF7D0FF1C
:1002840001F078FB002008BD00200240034A044B23
:1002940011681B780B441360704700BF28000020CE
:1002A40000000020014B1868704700BF28000020A0
:1002B40038B50446FFF7F6FF0546631C1EBF044B22
:1002C4001B78E418FFF7EEFF401B8442FAD838BDD0
:1002D4000000002070477047036810B55A68044650
:1002E400900627D51A68910724D5A26AD2065EBF64
:1002F400A26A42F40072A2629A6802F46022B2F521
:10030400602F10D1E26872B95A6822F020025A6054
:10031400A36A23F48073A362A36ADB045EBFA36AA7
:1003240043F00103A3622046FFF7D4FF6FF01202EB
:1003340023681A6023685A68100630D51A68510772
:100344002DD5A26AD2065EBFA26A42F40052A2620E
:100354009A6802F4E042B2F5E04F0AD05A685005B8
:1003640016D49A6802F46022B2F5602F10D1E268C4
:1003740072B95A6822F080025A60A36A23F4805347
:10038400A362A36AD9055EBFA36A43F00103A36213
:10039400204600F047F96FF00C0223681A602368C6
:1003A4005A6852060DD51B68DB070AD5A36A204696
:1003B40043F48033A362FFF78EFF6FF001022368DA
:1003C4001A6010BD002373B5019390F82430012BFB
:1003D40074D001234D6880F82430062D02684FEA5A
:1003E40085030C6825D82B441F25566B053B9D407F
:1003F40026EA050504FA03F32B435363092C4FEA59
:1004040044038D682FD907262344D1681E3B9E40A0
:1004140021EA060105FA03F30B43D360A4F11003A8
:10042400012B2BD90023002280F82420184602B087
:1004340070BD0C2D0BD82B441F25166B233B9D4000
:1004440026EA050504FA03F32B431363D6E72B448A
:100454001F25D66A413B9D4026EA050504FA03F3AD
:100464002B43D362CAE70726116923449E4021EA3D
:10047400060105FA03F30B431361CFE7104B9A42CD
:1004840016D193681B02CDD49368102C43F4000357
:100494009360C7D10B4B0C4A1B68B3FBF2F20A23DF
:1004A40053430193019B002BBCD0019B013BF8E714
:1004B400836A43F0200383620123B4E70223B5E790
:1004C400002401400800002040420F0038B50368B2
:1004D40004469A68D20701D4002038BD9A6822F0F5
:1004E40001029A60FFF7DEFE054623689B68DB077E
:1004F400F2D5FFF7D7FE401B0228F6D9A36A0120E4
:1005040043F01003A362E36A43F00103E36238BDDE
:10051400F8B50446002877D0836A23B9C36280F80B
:10052400243001F0CFF82046FFF7D0FFA36A13F080
:1005340010036BD1002869D1A26A374922F488528A
:1005440022F0020242F00202A26294E824008A42EB
:10055400E16904D1B1F5402F08BF4FF40021E668EA
:1005640045EA46052943A568B5F5807F35D0012DB8
:1005740008BF4FF480736769012F06D17EBBA6695B
:10058400013E43EA463343F400635668B5F5807F81
:1005940026F4694643EA0603536096681F4B03EA50
:1005A400060343EA0103936001D0012D20D123699E
:1005B400013B1B05D56A25F470052B43D362926871
:1005C400174B1340994215D10023E362A36A23F029
:1005D400030343F00103A362F8BD2B46CBE7A66AED
:1005E40046F02006A662E66A46F00106E662CCE71B
:1005F4000023DFE7A36A23F0120343F01003A3628E
:10060400E36A43F00103E3620120F8BDA36A43F007
:100614001003A362F8E700BF003C0140FDF7E1FFCF
:10062400FE0E1FFF70470000074A0002D36800F463
:10063400E06023F4E0631B041B0C43F0BF6343F44A
:1006440000330343D360704700ED00E0174B30B52F
:10065400DC68C4F30224C4F10703251D042B28BF5E
:100664000423062D4FF0010598BF002405FA03F377
:1006740003F1FF3388BF033C1940A14005FA04F499
:10068400013C2240002842EA01024FEA0212AFBFB5
:1006940000F16040064B00F00F00D2B2A5BFD2B209
:1006A40000F561401A5480F8002330BD00ED00E0ED
:1006B40014ED00E00123420900F01F0003FA00F0EA
:1006C400014B43F82200704700E100E00138B0F12B
:1006D400807F0AD2F021064B064A586082F8231024
:1006E4000020072298601A6070470120704700BFFD
:1006F40010E000E000ED00E0044B04281A680CBF91
:1007040042F0040222F004021A60704710E000E094
:10071400704708B5FFF7FCFF08BD00002DE9F74F4F
:10072400002216466C4F6D4BDFF8B8E1DFF8B8C114
:100734004FF001080C6808FA06F808EA0404A0451A
:1007440040F085804D68122D00F0B78000F28D8056
:10075400022D00F0AF8000F28180002D00F0918026
:10076400012D00F0A5804FF00F09FF2C93BF8246A6
:1007740006F18045083DD0F800B092BFB500D0F82E
:1007840004B0AD0009FA05F82BEA080802FA05F5E9
:1007940088BF00F1040A48EA0505CAF80050D1F8F8
:1007A40004A01AF0805F52D0BD6926F0030845F01A
:1007B4000105BD61BD6908F1804805F00105019599
:1007C40008F5803806F0030B019D4FEA8B0BD8F82F
:1007D400085009FA0BF925EA0909414DA84271D0DC
:1007E40005F58065A8426FD005F58065A8426DD0F7
:1007F40005F58065A8426BD005F58065A84269D0EF
:1008040070450CBF0525062505FA0BF545EA0905D3
:10081400C8F808501D681AF4803F14BF2543A54347
:100824001D605D681AF4003F14BF2543A5435D6055
:100834009D681AF4801F14BF2543A5439D60DD689D
:100844001AF4001F14BF2C4325EA0404DC600136AB
:10085400102E7FF46DAF03B0BDE8F08F032D25D0CB
:10086400112D80D1CA6804327DE7654509D012D8BC
:10087400DFF878904D4504D009F580394D457FF473
:1008840072AF8A68E2B1012A0CBFC0F81080C0F8C8
:100894001480082267E7DFF858904D45F1D009F538
:1008A40080394D45EDD0A9F58019E7E700225AE7D4
:1008B400CA6858E7CA68083255E7CA680C3252E772
:1008C400042250E700259FE701259DE702259BE7C9
:1008D400032599E7042597E700100240000401402E
:1008E40000080140001C014000002110000011100C
:1008F400000031100AB1016170470904FBE70000F0
:1009040003682DE9F341DB07054610D42B689F07E4
:100914005ED42B68190700F195802B685A0700F103
:10092400BF80EA69002A40F02D81002014E0904C39
:10093400636803F00C03042B07D0636803F00C0313
:10094400082B0CD16368DE0309D523689C03DDD52D
:100954006B68002BDAD1012002B0BDE8F0816B682E
:10096400B3F5803F10D1236843F480332360FFF74D
:1009740099FC064623689803C8D4FFF793FC801BB0
:100984006428F7D90320E7E79BB9236823F480336D
:100994002360236823F480232360FFF783FC064647
:1009A40023689903B2D5FFF77DFC801B6428F7D92F
:1009B400E8E7B3F5A02F236803D143F48023236031
:1009C400D1E723F480332360236823F48023CDE725
:1009D400674C636813F00C0F07D0636803F00C03D3
:1009E400082B10D16368DA030DD423689B0702D562
:1009F4002B69012BAFD123686A6923F0F80343EA1A
:100A0400C203236085E72A695A4B6AB101221A603E
:100A1400FFF748FC064623689F07ECD4FFF742FC27
:100A2400801B0228F7D9ADE71A60FFF73BFC0646A6
:100A3400236898077FF56DAFFFF734FC801B02280D
:100A4400F6D99FE7AA694A4C4B4BDAB101221A60E6
:100A5400FFF728FC0646636A9B070DD54FF4FA524C
:100A6400464B1B68B3FBF2F3019300BF019B5A1E74
:100A74000192002BF9D150E7FFF714FC801B0228E8
:100A8400E9D97FE71A60FFF70DFC0646636A9F0702
:100A94007FF543AFFFF706FC801B0228F6D971E708
:100AA400334CE369D80024D40127E36943F080532D
:100AB400E361E36903F080530093009B304E336895
:100AC400D90518D5EB68012B26D1236A43F001031D
:100AD4002362FFF7E7FB41F288368046236A9B07CF
:100AE4003FD5002F3FF41DAFE36923F08053E3614A
:100AF40017E70027E2E7336843F480733360FFF7B6
:100B0400D1FB80463368DA05DCD4FFF7CBFBA0EBDE
:100B140008006428F6D935E7ABB9236A41F288386E
:100B240023F001032362236A23F004032362FFF703
:100B3400B9FB0646236A9807D3D5FFF7B3FB801B9E
:100B44004045F7D91EE7052B236A03D143F004037C
:100B54002362BAE723F001032362236A23F0040328
:100B6400B6E7FFF79FFBA0EB0800B042B6D909E750
:100B7400001002400000424280044242080000206B
:100B840000700040224C636803F00C03082B3FF410
:100B9400E2AE00231F4E022A33602BD1FFF782FB03
:100BA4000746236899011FD42B6AB3F5803F05D10A
:100BB4006268A96822F400320A436260696A626862
:100BC4000B4322F474121343636001233360FFF771
:100BD40069FB054623689A013FF5A7AEFFF762FB60
:100BE400401B0228F6D9CDE6FFF75CFBC01B0228A8
:100BF400D7D9C7E6FFF756FB054623689B017FF567
:100C040094AEFFF74FFB401B0228F6D9BAE600BFAB
:100C1400001002406000424230B5194B87B002AC6C
:100C240003F11005224618685968083303C2AB4221
:100C34001446F7D101238DF80430022311498DF8AD
:100C440005304B6803F00C02082A17D1C3F3834222
:100C540006A80244DB0312F8102C0CD54B680A4892
:100C6400C3F34043504306AA134413F8143CB0FBA7
:100C7400F3F007B030BD05485043FAE70248F8E7FF
:100C8400A01E00080010024000127A0000093D0076
:100C94004D4A2DE9F0411368054603F007038B42E2
:100CA4000E4628D32A68910732D4D20738D4464A4C
:100CB400136803F007039E4273D32A68434C12F06F
:100CC400040F79D1130706D563682A6923F46053A6
:100CD40043EAC2036360FFF79FFF63683C4AC3F3C0
:100CE4000313D35CD8403B4B18600020FFF798FAFD
:100CF4000020BDE8F081136823F007030B43136061
:100D0400136803F007039942CCD00120BDE8F081B9
:100D14002E49A8684B6823F0F00303434B60C4E7F3
:100D24006A682A4C012A23681CD113F4003FECD0D2
:100D3400636841F2883823F0030313436360FFF7C9
:100D4400B1FA6B680746012B14D1636803F00C03F6
:100D5400042BACD0FFF7A6FAC01B4045F5D90320FD
:100D6400BDE8F081022A02D113F0007FDFE713F01F
:100D7400020FDCE7022B0FD1636803F00C03082B8E
:100D840095D0FFF78FFAC01B4045F5D9E7E7FFF789
:100D940089FAC01B4045E2D8636813F00C0FF6D102
:100DA40085E7136823F0070333431360136803F0E4
:100DB40007039E42A9D180E76368E96823F4E063EE
:100DC4000B4363607EE700BF002002400010024036
:100DD400BD1E000808000020014B1868704700BFC2
:100DE40008000020044B054A5B68C3F30223D35C6C
:100DF400034A1068D840704700100240CD1E000816
:100E040008000020044B054A5B68C3F3C223D35C8B
:100E1400034A1068D840704700100240CD1E0008F5
:100E24000800002003682DE9F341D907054620D5C1
:100E3400354CE369DA0032D40127E36943F0805387
:100E4400E361E36903F080530193019B2F4E336800
:100E5400DB0526D5236A13F4407336D1236A6A6806
:100E640023F44073134323621FB1E36923F08053D7
:100E7400E3612868830706D5234AA968536823F4E5
:100E840040430B43536010F010001BD01E4A6969A5
:100E94005368002023F480030B43536012E00027BF
:100EA400D4E7336843F480733360FFF7FBF980467B
:100EB4003368D805CED4FFF7F5F9A0EB0800642811
:100EC400F6D9032002B0BDE8F0816A6802F44072EA
:100ED4009342C3D001200E4A236A1060002023F4F9
:100EE400407110602162D907B8D5FFF7DBF941F2F0
:100EF40088380646236A9A07B0D4FFF7D3F9801BD3
:100F04004045F7D9DDE700BF001002400070004003
:100F140040044242036A70B523F001030362036A8A
:100F2400446882690D6822F073022A438D6823F0B5
:100F340002032B430E4DA84202D00E4EB04210D1F4
:100F4400CE6823F008033343A84223F0040302D0FD
:100F5400084DA84205D14D698E6924F44074354387
:100F64002C43446082614A684263036270BD00BFDF
:100F7400002C014000340140036A70B523F48073EF
:100F84000362036A4468C2690D6822F073022A434B
:100F94008D6823F4007343EA0523114DA84203D05E
:100FA40005F50065A84214D1CD6823F4006343EA33
:100FB40005230B4D23F48063A84203D005F5006597
:100FC400A84206D14D698E6924F44054354344EA5D
:100FD40005144460C2614A68C263036270BD00BF05
:100FE400002C0140036A30B523F480530362036A82
:100FF4004468C2690D6822F4E64242EA05228D681B
:1010040023F4005343EA0533084DA84203D005F501
:101014000065A84204D14D6924F4804444EA85144F
:101024004460C2614A680264036230BD002C01401E
:1010340090F83C3070B5012B4FF002031CD0012214
:1010440080F83D30036880F83C209A6822F47F429F
:1010540022F077029A600A68402A79D019D8102AB7
:1010640000F093800AD8002A00F08980012380F8D8
:101074003D30002380F83C30184670BD202A00F033
:101084008A80302AF2D19A6822F0700242F0370244
:1010940036E0702A36D01BD8502A42D0602AE5D1D7
:1010A4001C6A4D6824F01004CE681C6299691A6A9F
:1010B40021F4704122F0A00242EA051241EA06310D
:1010C40099611A629A6822F0700242F0670217E08E
:1010D400B2F5805F11D0B2F5005FC7D18A684D6860
:1010E4009C68C9682A4324F47F4442EA01222243CB
:1010F4009A609A6842F4804202E09A6822F00702F9
:101104009A60B3E78A684D689C68C9682A4324F4E6
:101114007F4442EA012222439A609A6842F07702AD
:10112400EEE74C68CE68196A1D6A21F00A0125F0C1
:1011340001051D629A69214322F0F00242EA061277
:101144009A6119629A6822F0700242F05702D7E756
:101154004C68CE68196A1D6A21F00A0125F0010560
:101164001D629A69214322F0F00242EA06129A6152
:1011740019629A6822F0700242F04702C0E79A6846
:1011840022F0700242F00702BAE79A6822F0700275
:1011940042F01702B4E79A6822F0700242F0270284
:1011A400AEE70000244A0368904212D002F50062C0
:1011B40090420ED0B0F1804F0BD0A2F598329042FD
:1011C40007D002F58062904203D002F5806290421B
:1011D4001DD14A6823F070031343174A904212D07A
:1011E40002F5006290420ED0B0F1804F0BD0A2F510
:1011F4009832904207D002F58062904203D002F503
:101204008062904203D1CA6823F4407313434A694D
:1012140023F08003134303608B68C3620B6883620B
:10122400054B984203D003F50063984201D10B6942
:101234000363012343617047002C014010B5044649
:10124400A0B190F83D3003F0FF021BB980F83C20B8
:1012540000F07AFC0223206884F83D30211DFFF75A
:10126400A1FF0123002084F83D3010BD012010BDF2
:1012740010B50446A0B190F83D3003F0FF021BB94D
:1012840080F83C2000F02CFC0223206884F83D30D8
:10129400211DFFF787FF0123002084F83D3010BD96
:1012A400012010BD036A70B523F010030362036AC2
:1012B400446882690D6822F4E64242EA05228D6898
:1012C40023F0200343EA0513104DA84203D005F58B
:1012D4000065A84214D1CD6823F0800343EA0513C6
:1012E4000A4D23F04003A84203D005F50065A84247
:1012F40006D14D698E6924F44064354344EA85047B
:10130400446082614A688263036270BD002C0140BC
:1013140038B590F83C300446012B4FF0020025D03C
:10132400012384F83D0084F83C300C2A18D8DFE807
:1013340002F0071717171E1717172F171717400054
:101344002068FFF7E7FD236809699A6942F00802FB
:101354009A619A6922F004029A619A690A439A612D
:101364000123002084F83D3084F83C0038BD206817
:10137400FFF798FF236809699A6942F400629A6149
:101384009A6922F480629A619A6942EA0122E6E744
:101394002068FFF7F1FD23680969DA6942F0080261
:1013A400DA61DA6922F00402DA61DA690A43DA619D
:1013B400D6E72068FFF716FE23680969DA6942F464
:1013C4000062DA61DA6922F48062DA61DA6942EA97
:1013D4000122ECE790F83C3010B5012B4FF00203EA
:1013E40018D080F83D3003680C685A68496822F0C8
:1013F40070025A605A6822435A609A6822F0800246
:101404009A609A680A439A60012380F83D30002369
:1014140080F83C30184610BD2DE9F0470568C268D5
:101424002B69016923F4405313432B618368EA68F1
:101434000B43416922F4B05222F00C020B431343D4
:10144400EB606B69826923F4407313436B61404B17
:1014540081469D424FF0190446D1FFF7D3FC04FBAB
:1014640000F3D9F804604FF06408B600B3FBF6F358
:10147400B3FBF8F31E01FFF7C5FC6043D9F8043051
:101484009B00B0FBF3F7FFF7BDFC6043D9F80430D1
:101494009B00B0FBF3F3B3FBF8F308FB13731B01DE
:1014A4003233B3FBF8F303F0F007FFF7ABFC604310
:1014B400D9F804209200B0FBF2FAFFF7A3FC6043D2
:1014C400D9F804309B00B0FBF3F3B3FBF8F308FB4B
:1014D40013A31B013233B3FBF8F303F00F033B43B5
:1014E4003344AB60BDE8F087FFF77CFC04FB00F3FA
:1014F400D9F804604FF06408B600B3FBF6F3B3FB0D
:10150400F8F31E01FFF76EFC6043D9F804309B002A
:10151400B0FBF3F7FFF766FC6043D9F804309B0097
:10152400B0FBF3F3B3FBF8F308FB13731B01323383
:10153400B3FBF8F303F0F007FFF754FC6043D9F86A
:1015440004209200B0FBF2FAFFF74CFCB7E700BFAF
:101554000038014010B5044640B390F8393003F028
:10156400FF021BB980F8382000F016FC24232268FF
:1015740084F83930D368204623F40053D360FFF74E
:101584004BFF236800201A6922F490421A615A69B9
:1015940022F02A025A61DA6842F40052DA60202307
:1015A400E06384F8393084F83A3010BD012010BD6E
:1015B4001FB51348134B4FF460220360002383606C
:1015C400C360436143600123C2610361FEF7A0FF6E
:1015D40018B145210C4800F0CBF90A2301930123EB
:1015E4000293002301A906480393FEF7EBFE18B10A
:1015F4004F21054800F0BCF905B05DF804FB00BFBD
:101604005C00002000240140B01E00081FB51348F0
:10161400134B4FF46022036000238360C360436173
:1016240043600123C2610361FEF772FF18B16321B5
:101634000C4800F09DF90423019301230293002335
:1016440001A906480393FEF7BDFE18B16D210548B4
:1016540000F08EF905B05DF804FB00BF2C000020FB
:1016640000280140B01E00081FB51348134B4FF467
:101674006022036000238360C360436143600123ED
:10168400C2610361FEF744FF18B181210C4800F0E8
:101694006FF90C23019301230293002301A9064847
:1016A4000393FEF78FFE18B18B21054800F060F913
:1016B40005B05DF804FB00BF8C000020003C014035
:1016C400B01E000800B50368244A89B0934213D1C0
:1016D400234B24489A6904A942F400729A619B69D5
:1016E40003F400730193019B032304930593FFF711
:1016F40015F809B05DF804FB1B4A934210D1184B4E
:1017040004A99A69194842F480629A619B6903F4B6
:1017140080630293029B1023049303230593E6E75B
:10172400134A9342E5D10E4B04A99A690D4842F439
:1017340000429A619B6903F400430393039B0C23C7
:10174400049303230593FEF7E9FF00222F2011469B
:10175400FEF77CFF2F20FEF7ADFFCAE7002401400F
:101764000010024000100140002801400008014020
:10177400003C0140324B2DE9F0419A6988B042F0B7
:1017840010029A619A69DFF8C48002F01002019293
:10179400019A9A692B4C42F004029A619A692A4D83
:1017A40002F004020292029A9A69404642F0080248
:1017B4009A619B69002203F00803039346F2C01167
:1017C400039BFFF797F8204600220321FFF792F8C6
:1017D400002228464FF47071FFF78CF80127022687
:1017E40046F2C01304A94046049305970796FEF7F2
:1017F40095FF032304A92046049300240597079624
:10180400FEF78CFF4FF4406304A94046049305940B
:101814000694FEF783FF202304A928460493059425
:101824000694FEF77BFF4FF4707304A928460493D3
:1018340005970796FEF772FF08B0BDE8F08100BF78
:101844000010024000080140000C0140001001405B
:10185400102330B597B0119300230224012514936B
:101864004FF400130CA80C94109513941593FFF7E0
:1018740047F800B1FEE70F2301934FF48063039010
:101884000590294601A802940493FFF701FA00B1D8
:10189400FEE74FF4804306A806940893FFF7C2FAC4
:1018A400044600B1FEE7FFF797FA4FF47A73B0FBF2
:1018B400F3F0FEF70BFF0420FEF71EFF224621463D
:1018C4004FF0FF30FEF7C2FE17B030BD08B5FEF78B
:1018D400CBFCFFF7BDFFFFF74DFFFFF769FEFFF7F6
:1018E40095FEFFF7C1FE00F08BF900F0C1F900F09E
:1018F400F9F900F0C1F800F02FFA1B4D1B4C2846F3
:1019040001224FF40051FEF7F5FF284601224FF45F
:101914008041FEF7EFFF012220461146FEF7EAFF61
:10192400012202212046FEF7E5FF4FF47A70FEF70C
:10193400BFFC284600224FF40051FEF7DBFF284687
:1019440000224FF48041FEF7D5FF204600220121FA
:10195400FEF7D0FF204600220221FEF7CBFF4FF412
:101964007A70FEF7A5FCCAE70010014000080140A8
:10197400FEE70000204B07B59A69032042F00102FC
:101984009A619B6903F001030193019BFEF74CFEEE
:1019940000226FF00B001146FEF758FE00226FF094
:1019A4000A001146FEF752FE00226FF009001146AC
:1019B400FEF74CFE00226FF004001146FEF746FECF
:1019C40000226FF003001146FEF740FE00226FF084
:1019D40001001146FEF73AFE00224FF0FF30114697
:1019E400FEF734FE054A536823F0E06343F0806356
:1019F400536003B05DF804FB001002400000014096
:101A04007047FEE7FEE7FEE7FEE770477047704762
:101A140008B5FEF73BFCBDE80840FEF77ABE0000BF
:101A24000148FEF759BC00BF8C0000200F4B1A6818
:101A340042F001021A6059680D4A0A405A601A6855
:101A440022F0847222F480321A601A6822F480220E
:101A54001A605A6822F4FE025A604FF41F029A6018
:101A64004FF00062034B9A60704700BF00100240C1
:101A74000000FFF800ED00E07FB51648164B036048
:101A8400002343608360C36003618361FFF7D6FB77
:101A940018B18A211148FFF76BFF4FF4805306A950
:101AA40041F8103D0B48FFF7C3FA18B190210B48D9
:101AB400FFF75EFF00236946064800930193FFF792
:101AC40089FC18B197210548FFF752FF07B05DF86C
:101AD40004FB00BFBC00002000080040D51E000825
:101AE400036884B0B3F1804F0CD103F50433DA6991
:101AF40042F00102DA61DB6903F001030193019B07
:101B040004B070470D4A93420AD10D4BDA6942F092
:101B14000202DA61DB6903F002030293029BEFE73E
:101B2400084A9342ECD1064BDA6942F00802DA61C2
:101B3400DB6903F008030393039BE1E7000400401F
:101B440000100240000C00400268084B82B09A4228
:101B54000AD103F50233DA6942F00402DA61DB697F
:101B640003F004030193019B02B070470008004096
:101B74001FB50368B3F1804F15D14FF48063009310
:101B840002236946184801930393FEF7C7FD174AD9
:101B9400536823F4407343F0E06343F400735360E9
:101BA40005B05DF804FB124A934210D14FF4007360
:101BB4000093022369460F4801930393FEF7AEFD99
:101BC4000A4A536843F0E06343F44063E7E70A4A90
:101BD4009342E5D108230093022369460748019301
:101BE4000393FEF79BFDDBE7000C0140000001407E
:101BF4000004004000100140000C004000080140B7
:101C040010B54FF08043002417488AB080E81800CC
:101C14008460C46004618461FFF72AFB18B1422127
:101C24001248FFF7A5FE01A90F4801940294FFF79B
:101C3400D1FB18B149210D48FFF79AFE60230393A5
:101C44000023082203A90848049305930793FFF788
:101C54005FFB18B152210548FFF78AFE0248FFF7DF
:101C640087FF0AB010BD00BF7C010020D51E00080C
:101C740010B500241848194B8AB080E81800846015
:101C8400C46004618461FFF7F3FA18B16621144853
:101C9400FFF76EFE01A9104801940294FFF79AFB26
:101CA40018B16D210E48FFF763FE60230C220393E5
:101CB40000230DEB02010848049305930793FFF7F3
:101CC40027FB18B176210648FFF752FE0248FFF7BA
:101CD4004FFF0AB010BD00BF3C01002000040040CB
:101CE400D51E000810B500241848194B8AB080E8A6
:101CF40018008460C46004618461FFF7B9FA18B104
:101D0400A9211448FFF734FE01A910480194029454
:101D1400FFF760FB18B1B0210E48FFF729FE6023DE
:101D24000C22039300230DEB02010848049305934E
:101D34000793FFF7EDFA18B1B9210648FFF718FE2B
:101D44000248FFF715FF0AB010BD00BFFC000020D9
:101D5400000C0040D51E000808B54FF4E13E0B48C6
:101D64000B4B0C2280E80840002342618360C3606F
:101D740003618361C361FFF7EDFB28B1BDE808404F
:101D840042210448FFF7F4BD08BD00BFBC01002098
:101D940000380140E21E00087FB50268124B9A42E7
:101DA4001FD103F558439A6902A942F480429A610B
:101DB4009B690E4803F480430193019B4FF4007325
:101DC40002930223039303230593FEF7A7FC4FF426
:101DD40080630293002302A9044803930493FEF74B
:101DE4009DFC07B05DF804FB003801400008014089
:101DF400002103E00B4B5B58435004310A480B4B62
:101E040042189A42F6D30A4A02E0002342F8043BFD
:101E1400084B9A42F9D3FFF709FE00F00FF8FFF7D9
:101E240055FD7047FC1E0008000000200C00002037
:101E34000C000020FC010020FEE7000070B5002526
:101E44000C4E0D4CA41BA410A54209D100F01AF8A5
:101E540000250A4E0A4CA41BA410A54205D170BD4E
:101E640056F8253098470135EEE756F8253098475F
:101E74000135F2E7F41E0008F41E0008F41E000801
:101E8400F81E0008F8B500BFF8BC08BC9E467047B1
:0C1E9400F8B500BFF8BC08BC9E467047C3
:101EA00002030405060708090A0B0C0D0E0F10109B
:101EB0002E2E5C5372635C6164632E63000000002D
:101EC00000000000000102030406070809000000EA
:101ED00000010203042E2E5C5372635C74696D2E44
:101EE00063002E2E5C5372635C75736172742E6393
:041EF00000000000EE
:041EF40009020008D7
:041EF800E5010008F8
:0C1EFC00010000001000000000A24A04D9
:0400000508001DF5DD
:00000001FF
