:020000040800F2
:1000000000000120352600089520000897200008F0
:10001000992000089B2000089D2000080000000097
:100020000000000000000000000000009F20000809
:10003000A120000800000000A3200008A52000085F
:100040007D2600087D2600087D2600087D26000804
:100050007D2600087D2600087D2600087D260008F4
:100060007D2600087D2600087D2600087D260008E4
:100070007D2600087D2600087D2600087D260008D4
:100080007D2600087D2600087D2600087D260008C4
:100090007D2600087D2600087D2600087D260008B4
:1000A0007D2600087D2600087D2600087D260008A4
:1000B0007D2600087D260008B52000087D26000862
:1000C0007D2600087D2600087D2600087D26000884
:1000D0007D2600087D2600087D2600087D26000874
:1000E0007D2600087D2600087D2600087D26000864
:1000F0007D2600087D2600087D2600087D26000854
:100100007D2600087D2600087D2600087D26000843
:100110007D2600087D2600087D2600087D26000833
:100120007D2600087D2600087D2600087D26000823
:1001300000000000000000000000000000000000BF
:1001400000000000000000000000000000000000AF
:10015000000000000000000000000000000000009F
:10016000000000000000000000000000000000008F
:10017000000000000000000000000000000000007F
:10018000000000000000000000000000000000006F
:10019000000000000000000000000000000000005F
:1001A000000000000000000000000000000000004F
:1001B000000000000000000000000000000000003F
:1001C000000000000000000000000000000000002F
:1001D000000000000000000000000000000000001F
:0401E0005FF8E0F1F3
:1001E40010B5054C237833B9044B13B10448AFF36D
:1001F40000800123237010BD78000020000000005F
:10020400502E000808B5034B1BB103490348AFF354
:10021400008008BD000000007C000020502E000873
:1002240038B50E4B054618784FF47A73B3FBF0F3E8
:100234000B4A1068B0FBF3F000F00AFB044658B90F
:100244000F2D09D8024629464FF0FF3000F0C0FABE
:10025400044B20461D6038BD012038BD000000203D
:100264001000002004000020074A08B5136803208A
:1002740043F01003136000F099FA0020FFF7D0FF59
:1002840001F0C0FE002008BD00200240034A044BD8
:1002940011681B780B441360704700BFA000002056
:1002A40000000020014B1868704700BFA000002028
:1002B40038B50446FFF7F6FF0546631C1EBF044B22
:1002C4001B78E418FFF7EEFF401B8442FAD838BDD0
:1002D40000000020F7B5002604460D460196FFF7FE
:1002E400E1FF236807469A68D20508D50120A36A6E
:1002F40084F8246043F02003A36203B0F0BD5A687D
:10030400D60503D4DB6A13F4700F3BD03A4B0220BA
:100314001E6800F0C1FE2368384A1969B6FBF0F084
:100324001142374A4FD1DE6836490E424BD1196922
:10033400114259D1DA68344B1A4214BF29231423C9
:1003440000FB03F6019B9E4220D96B1C05D05DB1D6
:10035400FFF7A8FFC01B854206D3019B013301931D
:10036400F0E7681C0FD045B9A36A032043F00403E7
:10037400A362002384F82430BFE7FFF793FFC01B78
:100384008542F1D3226813689907EAD56FF0120306
:1003940022681360A36A43F40073A362936803F4AE
:1003A4006023B3F5602F25D1E3681BBBA36A23F454
:1003B4008073A362A06A10F480501BD1A36A43F037
:1003C4000103A36299E71969114203D1D9680E4A5E
:1003D40011420BD019690D4A114209D1DB6813424D
:1003E40014BFFC235423ABE72923A9E75423A7E72D
:1003F400FC23A5E7002080E7100000202449922474
:1004040092244912244992009224490049922400DA
:100414000368D86C70470000002373B5019390F80B
:100424002430012B74D001234D6880F82430062D2C
:1004340002684FEA85030C6825D82B441F25566BA8
:10044400053B9D4026EA050504FA03F32B43536359
:10045400092C4FEA44038D682FD907262344D16819
:100464001E3B9E4021EA060105FA03F30B43D360C9
:10047400A4F11003012B2BD90023002280F824209F
:10048400184602B070BD0C2D0BD82B441F25166BDB
:10049400233B9D4026EA050504FA03F32B4313632B
:1004A400D6E72B441F25D66A413B9D4026EA050525
:1004B40004FA03F32B43D362CAE7072611692344E2
:1004C4009E4021EA060105FA03F30B431361CFE7CB
:1004D400104B9A4216D193681B02CDD49368102C0A
:1004E40043F400039360C7D10B4B0C4A1B68B3FB66
:1004F400F2F20A2353430193019B002BBCD0019BCE
:10050400013BF8E7836A43F0200383620123B4E7E5
:100514000223B5E7002401401000002040420F00F0
:10052400002373B50193036804469A68D20702D581
:10053400002002B070BD9A6842F001029A60124B2A
:10054400124A1B68B3FBF2F30193019BC3B9FFF793
:10055400A9FE064623689D6815F00105E8D1FFF75A
:10056400A1FE801B0228F5D9A36A84F8245043F025
:100574001003A362E36A012043F00103E362D8E7B6
:10058400019B013BE0E700BF1000002040420F0048
:1005940090F8243010B5012B044654D0012380F880
:1005A4002430FFF7BDFF002849D1A36A274A23F46A
:1005B400407323F0010343F48073A36223689342DE
:1005C40004D123494A6812F4702F2ED1A26A22F46E
:1005D4008012A2625A68520541BFA26A22F44052B4
:1005E40042F48052A262A26A12F480521CBFE26AF0
:1005F40022F00602E262002284F824206FF0020254
:100604001A609A6802F46022B2F5602F13D10F4A7F
:10061400934205D1A2F58062526812F4702F0AD178
:100624009A6842F4A0029A6010BDA26A42F4801251
:10063400A2624A68CFE79A6842F48012F3E7002383
:1006440084F8243010BD022010BD00BF00280140F2
:100654000024014038B5036804469A68D20701D4DF
:10066400002038BD9A6822F001029A60FFF71AFE52
:10067400054623689B68DB07F2D5FFF713FE401B92
:100684000228F6D9A36A012043F01003A362E36AA7
:1006940043F00103E36238BDF8B50446002877D07F
:1006A400836A23B9C36280F8243001F0ADFA20468E
:1006B400FFF7D0FFA36A13F010036BD1002869D1B0
:1006C400A26A374922F4885222F0020242F002025E
:1006D400A26294E824008A42E16904D1B1F5402F72
:1006E40008BF4FF40021E66845EA46052943A5689A
:1006F400B5F5807F35D0012D08BF4FF4807367694D
:10070400012F06D17EBBA669013E43EA463343F47A
:1007140000635668B5F5807F26F4694643EA06030C
:10072400536096681F4B03EA060343EA0103936090
:1007340001D0012D20D12369013B1B05D56A25F485
:1007440070052B43D3629268174B1340994215D11D
:100754000023E362A36A23F0030343F00103A362CB
:10076400F8BD2B46CBE7A66A46F02006A662E66AE9
:1007740046F00106E662CCE70023DFE7A36A23F034
:10078400120343F01003A362E36A43F00103E3623C
:100794000120F8BDA36A43F01003A362F8E700BF89
:1007A400003C0140FDF7E1FFFE0E1FFF074A000277
:1007B400D36800F4E06023F4E0631B041B0C43F0F3
:1007C400BF6343F400330343D360704700ED00E09C
:1007D400174B30B5DC68C4F30224C4F10703251DAC
:1007E400042B28BF0423062D4FF0010598BF0024D5
:1007F40005FA03F303F1FF3388BF033C1940A1401A
:1008040005FA04F4013C2240002842EA01024FEABE
:100814000212AFBF00F16040064B00F00F00D2B2ED
:10082400A5BFD2B200F561401A5480F8002330BD50
:1008340000ED00E014ED00E00123420900F01F0088
:1008440003FA00F0014B43F82200704700E100E096
:100854000138B0F1807F0AD2F021064B064A586075
:1008640082F823100020072298601A607047012044
:10087400704700BF10E000E000ED00E0044B0428E6
:100884001A680CBF42F0040222F004021A60704796
:1008940010E000E0704708B5FFF7FCFF08BD00005A
:1008A4002DE9F74F002216466C4F6D4BDFF8B8E187
:1008B400DFF8B8C14FF001080C6808FA06F808EA36
:1008C4000404A04540F085804D68122D00F0B780E7
:1008D40000F28D80022D00F0AF8000F28180002DA7
:1008E40000F09180012D00F0A5804FF00F09FF2C3E
:1008F40093BF824606F18045083DD0F800B092BF10
:10090400B500D0F804B0AD0009FA05F82BEA0808E0
:1009140002FA05F588BF00F1040A48EA0505CAF899
:100924000050D1F804A01AF0805F52D0BD6926F0BF
:10093400030845F00105BD61BD6908F1804805F073
:100944000105019508F5803806F0030B019D4FEA77
:100954008B0BD8F8085009FA0BF925EA0909414D1F
:10096400A84271D005F58065A8426FD005F5806571
:10097400A8426DD005F58065A8426BD005F5806569
:10098400A84269D070450CBF0525062505FA0BF56C
:1009940045EA0905C8F808501D681AF4803F14BFD9
:1009A4002543A5431D605D681AF4003F14BF254329
:1009B400A5435D609D681AF4801F14BF2543A543B9
:1009C4009D60DD681AF4001F14BF2C4325EA04045B
:1009D400DC600136102E7FF46DAF03B0BDE8F08FFC
:1009E400032D25D0112D80D1CA6804327DE76545D9
:1009F40009D012D8DFF878904D4504D009F5803934
:100A04004D457FF472AF8A68E2B1012A0CBFC0F889
:100A14001080C0F81480082267E7DFF858904D452D
:100A2400F1D009F580394D45EDD0A9F58019E7E7F6
:100A340000225AE7CA6858E7CA68083255E7CA6804
:100A44000C3252E7042250E700259FE701259DE779
:100A540002259BE7032599E7042597E70010024048
:100A64000004014000080140001C01400000211066
:100A740000001110000031100AB10161704709042F
:100A8400FBE7000003682DE9F341DB07054610D4BA
:100A94002B689F075ED42B68190700F195802B689B
:100AA4005A0700F1BF80EA69002A40F02D81002036
:100AB40014E0904C636803F00C03042B07D06368C4
:100AC40003F00C03082B0CD16368DE0309D52368FB
:100AD4009C03DDD56B68002BDAD1012002B0BDE8A0
:100AE400F0816B68B3F5803F10D1236843F4803301
:100AF4002360FFF7D7FB064623689803C8D4FFF7A3
:100B0400D1FB801B6428F7D90320E7E79BB923684E
:100B140023F480332360236823F480232360FFF7C6
:100B2400C1FB064623689903B2D5FFF7BBFB801BC4
:100B34006428F7D9E8E7B3F5A02F236803D143F479
:100B440080232360D1E723F480332360236823F4D4
:100B54008023CDE7674C636813F00C0F07D06368FC
:100B640003F00C03082B10D16368DA030DD4236857
:100B74009B0702D52B69012BAFD123686A6923F047
:100B8400F80343EAC203236085E72A695A4B6AB132
:100B940001221A60FFF786FB064623689F07ECD400
:100BA400FFF780FB801B0228F7D9ADE71A60FFF737
:100BB40079FB0646236898077FF56DAFFFF772FB54
:100BC400801B0228F6D99FE7AA694A4C4B4BDAB13D
:100BD40001221A60FFF766FB0646636A9B070DD580
:100BE4004FF4FA52464B1B68B3FBF2F3019300BF78
:100BF400019B5A1E0192002BF9D150E7FFF752FBDB
:100C0400801B0228E9D97FE71A60FFF74BFB0646F1
:100C1400636A9F077FF543AFFFF744FB801B0228FD
:100C2400F6D971E7334CE369D80024D40127E3698A
:100C340043F08053E361E36903F080530093009B26
:100C4400304E3368D90518D5EB68012B26D1236AB9
:100C540043F001032362FFF725FB41F28836804607
:100C6400236A9B073FD5002F3FF41DAFE36923F0B0
:100C74008053E36117E70027E2E7336843F48073A6
:100C84003360FFF70FFB80463368DA05DCD4FFF7E7
:100C940009FBA0EB08006428F6D935E7ABB9236A51
:100CA40041F2883823F001032362236A23F004030A
:100CB4002362FFF7F7FA0646236A9807D3D5FFF7AE
:100CC400F1FA801B4045F7D91EE7052B236A03D1AF
:100CD40043F004032362BAE723F001032362236A87
:100CE40023F00403B6E7FFF7DDFAA0EB0800B042F7
:100CF400B6D909E700100240000042428004424293
:100D04001000002000700040224C636803F00C03C4
:100D1400082B3FF4E2AE00231F4E022A33602BD18E
:100D2400FFF7C0FA0746236899011FD42B6AB3F56D
:100D3400803F05D16268A96822F400320A436260E8
:100D4400696A62680B4322F47412134363600123DB
:100D54003360FFF7A7FA054623689A013FF5A7AE6B
:100D6400FFF7A0FA401B0228F6D9CDE6FFF79AFA5E
:100D7400C01B0228D7D9C7E6FFF794FA05462368B3
:100D84009B017FF594AEFFF78DFA401B0228F6D93C
:100D9400BAE600BF001002406000424230B5194B71
:100DA40087B002AC03F1100522461868596808336D
:100DB40003C2AB421446F7D101238DF80430022359
:100DC40011498DF805304B6803F00C02082A17D13D
:100DD400C3F3834206A80244DB0312F8102C0CD59B
:100DE4004B680A48C3F34043504306AA134413F81C
:100DF400143CB0FBF3F007B030BD05485043FAE7AC
:100E04000248F8E7682E00080010024000127A0039
:100E140000093D004D4A2DE9F0411368054603F0F1
:100E240007038B420E4628D32A68910732D4D2078F
:100E340038D4464A136803F007039E4273D32A68E2
:100E4400434C12F0040F79D1130706D563682A695D
:100E540023F4605343EAC2036360FFF79FFF6368B0
:100E64003C4AC3F30313D35CD8403B4B18600020C7
:100E7400FFF7D6F90020BDE8F081136823F00703DB
:100E84000B431360136803F007039942CCD001208D
:100E9400BDE8F0812E49A8684B6823F0F0030343B2
:100EA4004B60C4E76A682A4C012A23681CD113F4F6
:100EB400003FECD0636841F2883823F00303134306
:100EC4006360FFF7EFF96B680746012B14D1636881
:100ED40003F00C03042BACD0FFF7E4F9C01B40452E
:100EE400F5D90320BDE8F081022A02D113F0007F76
:100EF400DFE713F0020FDCE7022B0FD1636803F086
:100F04000C03082B95D0FFF7CDF9C01B4045F5D94C
:100F1400E7E7FFF7C7F9C01B4045E2D8636813F061
:100F24000C0FF6D185E7136823F0070333431360EE
:100F3400136803F007039E42A9D180E76368E96858
:100F440023F4E0630B4363607EE700BF00200240AC
:100F540000100240952E000810000020014B186874
:100F6400704700BF10000020044B054A5B68C3F3C0
:100F74000223D35C034A1068D84070470010024033
:100F8400A52E000810000020044B054A5B68C3F33B
:100F9400C223D35C034A1068D84070470010024053
:100FA400A52E00081000002003682DE9F341D9079D
:100FB400054620D5354CE369DA0032D40127E369CC
:100FC40043F08053E361E36903F080530193019B91
:100FD4002F4E3368DB0526D5236A13F4407336D1CC
:100FE400236A6A6823F44073134323621FB1E369DD
:100FF40023F08053E3612868830706D5234AA96850
:10100400536823F440430B43536010F010001BD08B
:101014001E4A69695368002023F480030B4353601C
:1010240012E00027D4E7336843F480733360FFF79A
:1010340039F980463368D805CED4FFF733F9A0EBED
:1010440008006428F6D9032002B0BDE8F0816A687C
:1010540002F440729342C3D001200E4A236A106006
:10106400002023F4407110602162D907B8D5FFF73E
:1010740019F941F288380646236A9A07B0D4FFF773
:1010840011F9801B4045F7D9DDE700BF001002408D
:101094000070004040044242024670B53B4B86B0AB
:1010A40002AD03F110062C4618685968083303C4CE
:1010B400B3422546F7D101238DF804300223501E94
:1010C4008DF805300F285ED8DFE800F032515D2D31
:1010D4005D5D5D2D5D5D5D5D5D5D5D082C4B5968FD
:1010E400186810F0807037D0C1F3834206A8024418
:1010F40012F8100CCA0341BF5A6806A9C2F3404251
:10110400521844BF12F8141C224A5B684CBFB2FB4D
:10111400F1F2214A5B0202FB00F01DD403234000DC
:10112400B0FBF3F018E006B0BDE87040FFF736BE40
:1011340040F20231164A136A1940B1F5817F1FD07B
:1011440003F44073B3F5007F08D149F64040536A75
:1011540013F0020F08BF002006B070BDB3F5407F46
:1011640011D113684FF2244013F4003FF2E7FFF764
:101174000BFF074B5B68C3F3813301335B00CFE79D
:101184004FF40040E8E70020E6E700BF782E0008AF
:101194000010024000127A0000093D00036A70B595
:1011A40023F001030362036A446882690D6822F034
:1011B40073022A438D6823F002032B430E4DA84289
:1011C40002D00E4EB04210D1CE6823F00803334350
:1011D400A84223F0040302D0084DA84205D14D696A
:1011E4008E6924F4407435432C43446082614A6818
:1011F4004263036270BD00BF002C01400034014013
:10120400036A70B523F480730362036A4468C26995
:101214000D6822F073022A438D6823F4007343EAB5
:101224000523114DA84203D005F50065A84214D149
:10123400CD6823F4006343EA05230B4D23F4806354
:10124400A84203D005F50065A84206D14D698E6910
:1012540024F44054354344EA05144460C2614A68A6
:10126400C263036270BD00BF002C0140036A30B545
:1012740023F480530362036A4468C2690D6822F44C
:10128400E64242EA05228D6823F4005343EA05331B
:10129400084DA84203D005F50065A84204D14D6964
:1012A40024F4804444EA85144460C2614A680264B8
:1012B400036230BD002C014003680020DA6842F06C
:1012C4000102DA601A6842F001021A60704790F86D
:1012D4003C3070B5012B4FF002031CD0012280F882
:1012E4003D30036880F83C209A6822F47F4222F063
:1012F40077029A600A68402A79D019D8102A00F037
:1013040093800AD8002A00F08980012380F83D30B8
:10131400002380F83C30184670BD202A00F08A80F3
:10132400302AF2D19A6822F0700242F0370236E095
:10133400702A36D01BD8502A42D0602AE5D11C6AC4
:101344004D6824F01004CE681C6299691A6A21F46D
:10135400704122F0A00242EA051241EA0631996185
:101364001A629A6822F0700242F0670217E0B2F53E
:10137400805F11D0B2F5005FC7D18A684D689C6860
:10138400C9682A4324F47F4442EA012222439A6032
:101394009A6842F4804202E09A6822F007029A6056
:1013A400B3E78A684D689C68C9682A4324F47F447B
:1013B40042EA012222439A609A6842F07702EEE7F9
:1013C4004C68CE68196A1D6A21F00A0125F00105EE
:1013D4001D629A69214322F0F00242EA06129A61E0
:1013E40019629A6822F0700242F05702D7E74C68FB
:1013F400CE68196A1D6A21F00A0125F001051D62F3
:101404009A69214322F0F00242EA06129A611962B3
:101414009A6822F0700242F04702C0E79A6822F00C
:10142400700242F00702BAE79A6822F0700242F0B2
:101434001702B4E79A6822F0700242F02702AEE77E
:1014440070477047704770477047036810B51A6952
:10145400044691070ED5DA6892070BD56FF00202A5
:101464001A6101229B6902779B0777D0FFF7EAFF95
:101474000023237723681A69500710D5DA685107C7
:101484000DD56FF004021A6102229B69227713F4CE
:10149400407F204668D0FFF7D5FF002323772368D9
:1014A4001A6912070FD5DA6810070CD56FF0080215
:1014B4001A610422DB692277990720465AD0FFF784
:1014C400C1FF0023237723681A69D20610D5DA688E
:1014D400D0060DD56FF010021A610822DB6922775D
:1014E40013F4407F20464BD0FFF7ACFF0023237753
:1014F40023681A69D10708D5DA68D20705D56FF0D1
:10150400010220461A61FFF79BFF23681A6910063F
:1015140008D5DA68110605D56FF0800220461A61F5
:1015240000F097F923681A69520608D5DA6850065C
:1015340005D56FF0400220461A61FFF785FF236846
:101544001A69910622D5DA6892061FD56FF0200237
:101554002046BDE810401A6100F07AB9FFF771FF28
:101564002046FFF770FF83E7FFF76BFF2046FFF786
:101574006AFF92E7FFF765FF2046FFF764FFA0E7E5
:10158400FFF75FFF2046FFF75EFFAFE710BD0000E7
:10159400244A0368904212D002F5006290420ED0B1
:1015A400B0F1804F0BD0A2F59832904207D002F5EB
:1015B4008062904203D002F5806290421DD14A6855
:1015C40023F070031343174A904212D002F50062CD
:1015D40090420ED0B0F1804F0BD0A2F598329042D9
:1015E40007D002F58062904203D002F580629042F7
:1015F40003D1CA6823F4407313434A6923F0800378
:10160400134303608B68C3620B688362054B984283
:1016140003D003F50063984201D10B6903630123EE
:1016240043617047002C014010B50446A0B190F806
:101634003D3003F0FF021BB980F83C2000F014FE9B
:101644000223206884F83D30211DFFF7A1FF012308
:10165400002084F83D3010BD012010BD10B50446B3
:10166400A0B190F83D3003F0FF021BB980F83C2094
:1016740000F0C6FD0223206884F83D30211DFFF7E9
:1016840087FF0123002084F83D3010BD012010BDE8
:10169400036A70B523F010030362036A4468826925
:1016A4000D6822F4E64242EA05228D6823F0200305
:1016B40043EA0513104DA84203D005F50065A8427E
:1016C40014D1CD6823F0800343EA05130A4D23F0B7
:1016D4004003A84203D005F50065A84206D14D6930
:1016E4008E6924F44064354344EA8504446082618D
:1016F4004A688263036270BD002C014038B590F8DB
:101704003C300446012B4FF0020025D0012384F81D
:101714003D0084F83C300C2A18D8DFE802F00717A3
:1017240017171E1717172F17171740002068FFF7F2
:1017340035FD236809699A6942F008029A619A6939
:1017440022F004029A619A690A439A6101230020F3
:1017540084F83D3084F83C0038BD2068FFF798FFDA
:10176400236809699A6942F400629A619A6922F4C9
:1017740080629A619A6942EA0122E6E72068FFF7EB
:101784003FFD23680969DA6942F00802DA61DA691F
:1017940022F00402DA61DA690A43DA61D6E72068E2
:1017A400FFF764FD23680969DA6942F40062DA61CB
:1017B400DA6922F48062DA61DA6942EA0122ECE74A
:1017C40010B50124036A8C4023EA04030362036A0C
:1017D4008A401A43026210BD10B504460122006813
:1017E400FFF7EEFF2368084A934203D002F5006234
:1017F400934203D15A6C42F400425A641A6800209E
:1018040042F001021A6010BD002C014090F83C30F7
:1018140010B5012B4FF0020318D080F83D30036857
:101824000C685A68496822F070025A605A68224368
:101834005A609A6822F080029A609A680A439A6011
:10184400012380F83D30002380F83C30184610BD59
:10185400704770472DE9F0470568C2682B69016934
:1018640023F4405313432B618368EA680B434169B3
:1018740022F4B05222F00C020B431343EB606B6969
:10188400826923F4407313436B61404B81469D424C
:101894004FF0190446D1FFF777FB04FB00F3D9F8A6
:1018A40004604FF06408B600B3FBF6F3B3FBF8F33F
:1018B4001E01FFF769FB6043D9F804309B00B0FBBD
:1018C400F3F7FFF761FB6043D9F804309B00B0FBEA
:1018D400F3F3B3FBF8F308FB13731B013233B3FBCD
:1018E400F8F303F0F007FFF74FFB6043D9F8042047
:1018F4009200B0FBF2FAFFF747FB6043D9F80430DB
:101904009B00B0FBF3F3B3FBF8F308FB13A31B0139
:101914003233B3FBF8F303F00F033B433344AB60C0
:10192400BDE8F087FFF720FB04FB00F3D9F804605F
:101934004FF06408B600B3FBF6F3B3FBF8F31E01F3
:10194400FFF712FB6043D9F804309B00B0FBF3F7B8
:10195400FFF70AFB6043D9F804309B00B0FBF3F3B4
:10196400B3FBF8F308FB13731B013233B3FBF8F337
:1019740003F0F007FFF7F8FA6043D9F80420920067
:10198400B0FBF2FAFFF7F0FAB7E700BF0038014006
:10199400F8B504460E4617461D4621680B6836EA1C
:1019A400030301D10020F8BD6B1CF7D095B923685F
:1019B4000320DA6822F4D072DA605A6922F0010254
:1019C4005A61202384F8393084F83A30002384F8AB
:1019D4003830F8BDFEF766FCC01B8542DDD2E6E771
:1019E40010B5044640B390F8393003F0FF021BB938
:1019F40080F8382000F0F0FD2423226884F8393080
:101A0400D368204623F40053D360FFF723FF2368F1
:101A140000201A6922F490421A615A6922F02A02BB
:101A24005A61DA6842F40052DA602023E06384F8F1
:101A3400393084F83A3010BD012010BD2DE9F04151
:101A44001F4690F839300446202B0D4690464ED15F
:101A5400002949D0002A47D090F83830012B46D0CD
:101A6400012380F838300023C363212380F8393000
:101A7400FEF718FC0646A4F82480A4F82680E38C1C
:101A84009BB26BB93B46324640212046FFF780FFAC
:101A9400A8B9202384F8380084F83930BDE8F081EF
:101AA400E38C3246013B9BB2E384A3688021B3F507
:101AB400805F20463B460ED1FFF76AFF10B103203A
:101AC400BDE8F0812B882268C3F3080353602369BF
:101AD40043B90235D3E7FFF75BFF0028EFD1236852
:101AE4002A785A600135CAE70120BDE8F081022056
:101AF400BDE8F0811FB51348134B4FF46022036017
:101B040000238360C360436143600123C2610361B6
:101B1400FEF7C2FD18B14D210C4800F071FA0A23FA
:101B2400019301230293052301A906480393FEF7B9
:101B340073FC18B15721054800F062FA05B05DF84E
:101B440004FB00BFD400002000240140882E0008BC
:101B54001FB51348134B4FF46022036000238360C6
:101B6400C360436143600123C2610361FEF794FDD6
:101B740018B16B210C4800F043FA042301930123AC
:101B84000293052301A906480393FEF745FC18B107
:101B94007521054800F034FA05B05DF804FB00BF78
:101BA400A400002000280140882E00081FB5134817
:101BB400134B4FF46022036000238360C3604361CE
:101BC40043600123C2610361FEF766FD18B18921F8
:101BD4000C4800F015FA0C2301930123029305230A
:101BE40001A906480393FEF717FC18B19321054891
:101BF40000F006FA05B05DF804FB00BF0401002004
:101C0400003C0140882E000800B503681E4A89B0D4
:101C140093420FD11D4B9A6942F400729A619B69F9
:101C240003F400730193019B03230493059304A914
:101C3400174812E0174A934214D1144B16489A6974
:101C440004A942F480629A619B6903F4806302935D
:101C5400029B1023049303230593FEF721FE09B08E
:101C64005DF804FB0D4A9342F9D1084B9A6942F49A
:101C740000429A619B6903F400430393039B0C2382
:101C840004930323D2E700BF002401400010024064
:101C9400001001400028014000080140003C0140C0
:101CA400012330B585B00293052303930A2304ACC2
:101CB40044F80C3D21461748FEF7AEFB1548FEF7E5
:101CC40067FC144D4FF47A712846FEF703FB002895
:101CD400F8D11048FEF79CFB0F4B214618800223D5
:101CE4000293052303930B230A480193FEF794FB05
:101CF4000848FEF74DFC074C4FF47A712046FEF776
:101D0400E9FA0028F8D10348FEF782FB034B188058
:101D140005B030BDD4000020080000200A000020D7
:101D2400012330B585B00293052303930C2304AC3F
:101D340044F80C3D21461748FEF76EFB1548FEF7A4
:101D440027FC144D4FF47A712846FEF7C3FA002895
:101D5400F8D11048FEF75CFB0F4B21461880022394
:101D64000293052303930D230A480193FEF754FBC2
:101D74000848FEF70DFC074C4FF47A712046FEF735
:101D8400A9FA0028F8D10348FEF742FB034B188058
:101D940005B030BD040100200C0000200E0000201E
:101DA400324B2DE9F0419A6988B042F010029A61F1
:101DB4009A69DFF8C48002F010020192019A9A69CC
:101DC4002B4C42F004029A619A692A4D02F00402F3
:101DD4000292029A9A69404642F008029A619B690B
:101DE400002203F00803039346F2C011039BFEF79D
:101DF40043FE204600220321FEF73EFE0022284631
:101E04004FF47071FEF738FE0127022646F2C01324
:101E140004A94046049305970796FEF741FD032362
:101E240004A920460493002405970796FEF738FD7D
:101E34004FF4406304A94046049305940694FEF7C6
:101E44002FFD202304A92846049305940694FEF745
:101E540027FD4FF4707304A9284604930597079649
:101E6400FEF71EFD08B0BDE8F08100BF001002407F
:101E740000080140000C014000100140012307B597
:101E840002A901F8010D1A460248FFF7D7FD03B075
:101E94005DF804FB58020020012310B596B010939E
:101EA400102311930023022414934FF460130CA8FD
:101EB4000C9413941593FEF7E5FD00B1FEE70F2390
:101EC40001934FF4806303900590214601A8029486
:101ED4000493FEF79FFF00B1FEE74FF4404306A8CA
:101EE40006940893FFF760F8044600B1FEE7FFF795
:101EF40035F84FF47A73B0FBF3F0FEF7A9FC042035
:101F0400FEF7BCFC224621464FF0FF30FEF760FC92
:101F140016B010BD38B51C4D012228464FF40051AF
:101F2400FEF7AAFD284601224FF48041FEF7A4FDE6
:101F34000122164C11462046FEF79EFD0122022185
:101F44002046FEF799FD4FF47A70FEF7B1F9284662
:101F540000224FF40051FEF78FFD284600224FF473
:101F64008041FEF789FD204600220121FEF784FD11
:101F7400204600220221FEF77FFDBDE838404FF4E1
:101F84007A70FEF795B900BF0010014000080140C7
:101F940008B5FEF769F9FFF77FFFFFF701FFFFF7C9
:101FA400A9FDFFF7D5FDFFF701FE00F0C3F900F02E
:101FB400FBF900F035FA00F0EDF800F0EDFA0D4809
:101FC400FFF77AF90C4B00211B68986800F088FB36
:101FD400FFF7A0FF00F05EFA41F27071084600F0CE
:101FE400AFFA4FF47A70FEF763F90449084600F03B
:101FF400A7FAFEE7340100201400002090E8FFFF58
:10200400FEE70000204B07B59A69032042F0010265
:102014009A619B6903F001030193019BFEF7C6FBE0
:1020240000226FF00B001146FEF7D2FB00226FF086
:102034000A001146FEF7CCFB00226FF0090011469E
:10204400FEF7C6FB00226FF004001146FEF7C0FB4A
:1020540000226FF003001146FEF7BAFB00226FF076
:1020640001001146FEF7B4FB00224FF0FF30114689
:10207400FEF7AEFB054A536823F0E06343F0806348
:10208400536003B05DF804FB0010024000000140FF
:102094007047FEE7FEE7FEE7FEE7704770477047CC
:1020A40008B5FEF7F3F8BDE80840FEF7F4BB0000FE
:1020B40008B50448FFF7C9F9FFF7F2FDBDE8084089
:1020C400FFF72EBE3401002070B50E4615460C46AF
:1020D400A31B9D4201DC284670BDAFF3008004F8C9
:1020E400010BF5E770B50E4615460C46A31B9D4241
:1020F40001DC284670BD14F8010BFFF7BFFEF5E7BD
:1021040008B50A4B0246196809B9094919606946B4
:10211400186802448A4206D900F0B0FA0C2303601E
:102124004FF0FF3008BD1A6008BD00BF94000020C6
:102134009C0200204FF0FF3070474FF40053002002
:102144004B607047002070470F4B1A6842F0010241
:102154001A6059680D4A0A405A601A6822F084725B
:1021640022F480321A601A6822F480221A605A68B3
:1021740022F4FE025A604FF41F029A604FF000628C
:10218400034B9A60704700BF001002400000FFF844
:1021940000ED00E07FB509231648174941F63F7268
:1021A40080E80A000023C260836003618361FFF753
:1021B4003BFA18B185211148FFF722FF4FF48053F1
:1021C40006A941F8103D0B48FFF781F818B18A21A0
:1021D4000A48FFF715FF0023694606480093019358
:1021E400FFF714FB18B191210448FFF709FF07B06A
:1021F4005DF804FB3401002000080040AD2E000807
:10220400036884B0B3F1804F0CD103F50433DA6969
:1022140042F00102DA61DB6903F001030193019BDF
:1022240004B070470D4A93420AD10D4BDA6942F06B
:102234000202DA61DB6903F002030293029BEFE717
:10224400084A9342ECD1064BDA6942F00802DA619B
:10225400DB6903F008030393039BE1E700040040F8
:1022640000100240000C004007B50D4B02689A4272
:1022740012D103F50233DA691E2042F00402DA6156
:102284000022DB69114603F004030193019BFEF76E
:102294009FFA1E20FEF7D0FA03B05DF804FB00BFDE
:1022A400000800401FB50368B3F1804F15D14FF407
:1022B4008063009302236946184801930393FEF751
:1022C400EFFA174A536823F4407343F0E06343F48E
:1022D4000073536005B05DF804FB124A934210D1B9
:1022E4004FF400730093022369460F48019303934C
:1022F400FEF7D6FA0A4A536843F0E06343F44063B6
:10230400E7E70A4A9342E5D108230093022369468A
:10231400074801930393FEF7C3FADBE7000C01407F
:10232400000001400004004000100140000C004087
:10233400000801404FF0804341F6FF0C184810B5E7
:10234400002480E8081009238AB08460C360046113
:102354008461FFF783F918B141211248FFF750FE59
:1023640001A90F4801940294FFF750FA18B14821CB
:102374000C48FFF745FE602303930023082203A9BA
:102384000748049305930793FFF7B8F918B151214F
:102394000448FFF735FE0248FFF784FF0AB010BD7A
:1023A40018020020AD2E000841F6FF0C19481A4B04
:1023B40010B5002480E8081009238AB08460C36043
:1023C40004618461FFF74AF918B163211348FFF7E8
:1023D40017FE01A90F4801940294FFF717FA18B1E8
:1023E4006A210E48FFF70CFE60230C22039300239E
:1023F4000DEB02010748049305930793FFF77EF959
:1024040018B173210548FFF7FBFD0248FFF74AFFA7
:102414000AB010BDBC01002000040040AD2E00082D
:1024240010B500241848194B8AB080E8180084605D
:10243400C46004618461FFF711F918B1A121144843
:10244400FFF7DEFD01A9104801940294FFF7DEF9BD
:1024540018B1A8210E48FFF7D3FD60230C22039383
:1024640000230DEB02010848049305930793FFF73B
:1024740045F918B1B1210648FFF7C2FD0248FFF73C
:1024840011FF0AB010BD00BF7C010020000C004009
:10249400AD2E00086022012310B5244C244884E8A2
:1024A4000C00002308222146A3602361FFF726F9CC
:1024B40020B14FF4B1711F48FFF7A2FD6020012342
:1024C40084E8090000230C2218491B48A3602361F7
:1024D400FFF714F920B140F26B111648FFF790FD95
:1024E40008211348FFF778F920B140F26F11114821
:1024F400FFF786FD0C211048FFF76EF920B14FF469
:10250400B9710C48FFF77CFD012240210B48FEF70E
:10251400B3FA00224FF480710848FEF7ADFABDE823
:102524001040012280210548FEF7A6BAFC010020D4
:1025340018020020AD2E0008BC010020001001404C
:1025440038B5051E0C4611DD012280210F48FEF727
:1025540093FA002C11DD00224FF480710B48FEF732
:102564008BFA0B4B5D600B4B5C6038BD0022802105
:102574000648FEF781FA6D42EBE701224FF48071C1
:102584000248FEF779FA6442EBE700BF001001400D
:1025940018020020BC01002008B54FF4165E0B4859
:1025A4000B4B0C2280E80840002342618360C36027
:1025B40003618361C361FFF713FA28B1BDE80840E2
:1025C40042210448FFF71CBD08BD00BF580200208B
:1025D40000380140BA2E00087FB50268124B9A42B7
:1025E4001FD103F558439A6902A942F480429A61C3
:1025F4009B690E4803F480430193019B4FF40073DD
:1026040002930223039303230593FEF749F94FF43E
:1026140080630293002302A9044803930493FEF702
:102624003FF907B05DF804FB0038014000080140A1
:10263400002103E00B4B5B58435004310A480B4B19
:1026440042189A42F6D30A4A02E0002342F8043BB5
:10265400084B9A42F9D3FFF777FD00F015F8FFF71E
:1026640097FC7047382F00080000002078000020F5
:10267400780000209C020020FEE70000014B18684F
:10268400704700BF1400002070B500250C4E0D4C9F
:10269400A41BA410A54209D100F0D8FB00250A4EC2
:1026A4000A4CA41BA410A54205D170BD56F82530D0
:1026B40098470135EEE756F8253098470135F2E79B
:1026C400302F0008302F0008302F0008342F000866
:1026D40003460244934200D1704703F8011BF9E713
:1026E40000294FF480630CBF0222002200F000B8DE
:1026F4002DE9F7431D46514B04461E680F4690468C
:1027040026B1B36913B9304600F092F94C4B9C42A0
:1027140052D17468B8F1020F06D0B8F1010F00F27B
:102724008980002DC0F286802146304600F016F9DB
:10273400616B41B104F14403994202D0304600F088
:102744002DFA002363630023A3616360A3891B063E
:1027540003D52169304600F021FAA389B8F1020FAC
:1027640023F44A6323F00303A3815DD001AB6A46DB
:102774002146304600F0E6F9A3891843A0812DBB19
:10278400009D284600F002FA074600284ED1DDF8E5
:102794000090A9453CD14FF0FF30A38943F00203D8
:1027A400A3810023A36004F1470323602361012371
:1027B400636103B0BDE8F083224B9C4201D1B4684D
:1027C400A8E7214B9C4208BFF468A3E7002FD8D0A8
:1027D400B36913B9304600F02BF9B8F1010F08BF03
:1027E400A389276004BF43F00103A381A389276160
:1027F40013F0080065611BD013F001004FF00003D3
:102804001FBF6D42A360A561184608BFA560D0E74D
:10281400484600F0BBF907460028BCD0A3894D46C2
:1028240043F08003A381D3E70020B6E7A946F5E788
:10283400A060BEE74FF0FF30BBE700BF14000020EC
:10284400F02E0008102F0008D02E00088A892DE9E8
:10285400F041054610070C465AD44B68002B05DCA2
:102864000B6C002B02DC0020BDE8F081E66A002E30
:10287400F9D0002312F480522F682B6033D0606D9E
:10288400A3895A0705D56368C01A636B0BB1236C1F
:10289400C01A00230246E66A216A2846B047431C50
:1028A400A38906D129681D294BD82B4ACA40D607CB
:1028B40047D5002262602269D904226004D5421CF3
:1028C40001D12B6803B96065616B2F600029CAD000
:1028D40004F14403994202D0284600F05FF9002035
:1028E4006063BDE8F081216A01232846B047411C9A
:1028F400C6D12B68002BC3D01D2B01D0162B01D1C0
:102904002F60B0E7A38943F04003A381BDE8F081C1
:102914000F69002FA7D0930718BF00230E6808BFC4
:102924004B69A6EB07080F608B60B8F1000F9ADDC6
:1029340043463A46216A2846A66AB047002807DC7F
:10294400A38943F04003A3814FF0FF30BDE8F08139
:102954000744A8EB0008E8E70100402038B50B69FC
:1029640005460C46DBB118B183690BB900F060F879
:102974000C4B9C4209D16C68B4F90C307BB12146F4
:102984002846BDE83840FFF761BF074B9C4201D1A0
:10299400AC68F1E7054B9C4208BFEC68ECE700200B
:1029A40038BD00BFF02E0008102F0008D02E0008FC
:1029B400014900F0A9B800BF61290008002310B53F
:1029C400044603604360836081814366C28103617E
:1029D40043618361194608225C30FFF779FE054B99
:1029E40024626362044BA362044BE362044B2363DB
:1029F40010BD00BF152D0008372D00086F2D0008ED
:102A0400932D000870B568254A1E55430E4605F1FE
:102A1400740100F00FF9044640B1002180E842003F
:102A24000C30A06005F16802FFF752FE204670BD2D
:102A3400836910B5044633BB8364C3640365124BD6
:102A4400124A1B688262984204BF0123836100F02A
:102A54001FF86060204600F01BF8A060204600F0DC
:102A640017F80022E06004216068FFF7A7FF012245
:102A74000921A068FFF7A2FF02221221E068FFF7F4
:102A84009DFF0123A36110BDCC2E0008B5290008C9
:102A9400F8B51C4B07461E68B36913B93046FFF7F7
:102AA400C7FF4836B4687368013B03D5336833B154
:102AB4003668F7E7B4F90C506DB16834F4E70421D3
:102AC4003846FFF79FFF30600028F1D10C230446FD
:102AD4003B602046F8BD4FF6FF73E3810123656632
:102AE400A3812560A560656025616561A5610822F3
:102AF400294604F15C00FFF7EBFD6563A563A5645B
:102B0400E564E6E7CC2E00082DE9F84380468946C3
:102B1400002600F1480414B93046BDE8F883A568DE
:102B24006768013F01D52468F5E7AB89012B07D914
:102B3400B5F90E30013303D029464046C847064351
:102B44006835EEE770B50E46B1F90E1090B0002965
:102B540014461D4607DA00232B60B3891A0610D4E5
:102B64004FF480630EE001AA00F038F90028F2DB8C
:102B7400029A02F47042A2F500535A425A412A6062
:102B8400EEE740230020236010B070BD024B0146E5
:102B9400186800F04FB800BF1400002038B505468F
:102BA400002943D051F8043C0C1F002BB8BFE41893
:102BB40000F038F91E4A1368104633B96360146094
:102BC4002846BDE8384000F02EB9A3420BD921684D
:102BD4006218934201BF1A685B68521822606360EE
:102BE4000460EDE713465A680AB1A242FAD919689B
:102BF4005818A0420BD12068014458188242196029
:102C0400DED110685268014419605A60D8E702D9CD
:102C14000C232B60D4E7206821188A4201BF116875
:102C240052680918216062605C60C9E738BD00BF62
:102C34009800002070B5CD1C25F0030508350C2D37
:102C440038BF0C25002D064601DBA94203D90C230D
:102C54003360002070BD00F0E5F8234A1468214673
:102C640091B9224C23681BB9304600F041F820602A
:102C74002946304600F03CF8431C26D10C2330464C
:102C8400336000F0D0F8E4E70B685B1B1AD40B2B1D
:102C94000FD90B60CC18CD50304600F0C4F804F1C5
:102CA4000B00231D20F00700C31A1BD05A42E25028
:102CB40070BD8C420BBF63684B681360636018BFC0
:102CC4000C46E9E70C464968CAE7C41C24F003042F
:102CD400A04205D0211A304600F00AF80130CDD0C8
:102CE4002560D9E770BD00BF980000209C0000203B
:102CF40038B50023054C054608462360FFF700FA63
:102D0400431C02D1236803B12B6038BD9802002014
:102D140010B50C46B1F90E1000F086F80028ABBFD0
:102D2400636DA3891B1823F48053ACBF6365A3812F
:102D340010BD2DE9F0411F468B890546DB050C4685
:102D4400164605D502230022B1F90E1000F058F8FA
:102D5400A389324623F48053A381B4F90E103B4671
:102D64002846BDE8F04100F017B810B50C46B1F99B
:102D74000E1000F045F8431CA38915BF606523F4C9
:102D8400805343F48053A38118BFA38110BDB1F9CC
:102D94000E1000F013B8000038B505460846114679
:102DA4000022054C22601A46FFF79CF9431C02D10D
:102DB400236803B12B6038BD9802002038B5002386
:102DC400054C054608462360FFF7B4F9431C02D1BD
:102DD400236803B12B6038BD9802002038B5002366
:102DE400064C0546084611462360FFF7A6F9431C26
:102DF40002D1236803B12B6038BD00BF98020020C4
:102E040038B50546084611460022054C22601A468C
:102E1400FFF798F9431C02D1236803B12B6038BD36
:102E2400980200207047704738B505460846114699
:102E34000022054C22601A46FFF746F9431C02D1D2
:102E4400236803B12B6038BD98020020F8B500BF99
:102E5400F8BC08BC9E467047F8B500BFF8BC08BC77
:042E64009E467047CF
:102E680002030405060708090A0B0C0D0E0F1010C3
:102E780002030405060708090A0B0C0D0E0F1010B3
:102E88002E2E5C5372635C6164632E630000000045
:102E98000000000000010203040607080900000002
:102EA80000010203042E2E5C5372635C74696D2E5C
:102EB80063002E2E5C5372635C75736172742E63AB
:102EC80000000000180000200000000000000000C2
:102ED80000000000000000000000000000000000EA
:102EE80000000000000000000000000000000000DA
:102EF80000000000000000000000000000000000CA
:102F080000000000000000000000000000000000B9
:102F180000000000000000000000000000000000A9
:082F28000000000000000000A1
:042F3000090200088A
:042F3400E5010008AB
:102F380001000000100000000A000A000A000A0050
:102F480000A24A041800002000000000F02E00082B
:102F5800102F0008D02E000800000000000000001C
:102F68000000000000000000000000000000000059
:102F78000000000000000000000000000000000049
:102F88000000000000000000000000000000000039
:102F98000000000000000000000000000000000029
:082FA800000000000000000021
:040000050800263594
:00000001FF
