:020000040800F2
:100000000000012071240008D91F0008DB1F000830
:10001000DD1F0008DF1F0008E11F000800000000CE
:10002000000000000000000000000000E31F0008C6
:10003000E51F000800000000E71F0008E91F000896
:10004000B9240008B9240008B9240008B92400081C
:10005000B9240008B9240008B9240008B92400080C
:10006000B9240008B9240008B9240008B9240008FC
:10007000B9240008B9240008B9240008B9240008EC
:10008000B9240008B9240008B9240008B9240008DC
:10009000B9240008B9240008B9240008B9240008CC
:1000A000B9240008B9240008B9240008B9240008BC
:1000B000B9240008B9240008F91F0008B924000871
:1000C000B9240008B9240008B9240008B92400089C
:1000D000B9240008B9240008B9240008B92400088C
:1000E000B9240008B9240008B9240008B92400087C
:1000F000B9240008B9240008B9240008B92400086C
:10010000B9240008B9240008B9240008B92400085B
:10011000B9240008B9240008B9240008B92400084B
:10012000B9240008B9240008B9240008B92400083B
:1001300000000000000000000000000000000000BF
:1001400000000000000000000000000000000000AF
:10015000000000000000000000000000000000009F
:10016000000000000000000000000000000000008F
:10017000000000000000000000000000000000007F
:10018000000000000000000000000000000000006F
:10019000000000000000000000000000000000005F
:1001A000000000000000000000000000000000004F
:1001B000000000000000000000000000000000003F
:1001C000000000000000000000000000000000002F
:1001D000000000000000000000000000000000001F
:0401E0005FF8E0F1F3
:1001E40010B5054C237833B9044B13B10448AFF36D
:1001F40000800123237010BD78000020000000005F
:10020400A434000808B5034B1BB103490348AFF3FA
:10021400008008BD000000007C000020A434000819
:1002240038B50E4B054618784FF47A73B3FBF0F3E8
:100234000B4A1068B0FBF3F000F0F8FA044658B922
:100244000F2D09D8024629464FF0FF3000F0AEFAD0
:10025400044B20461D6038BD012038BD000000203D
:100264001000002004000020074A08B5136803208A
:1002740043F01003136000F087FA0020FFF7D0FF6B
:1002840001F062FE002008BD00200240034A044B36
:1002940011681B780B441360704700BFA000002056
:1002A40000000020014B1868704700BFA000002028
:1002B400F7B5002604460D460196FFF7F3FF2368C1
:1002C40007469A68D20508D50120A36A84F82460F9
:1002D40043F02003A36203B0F0BD5A68D60503D4EB
:1002E400DB6A13F4700F3BD03A4B02201E6800F017
:1002F400C1FE2368384A1969B6FBF0F01142374A47
:100304004FD1DE6836490E424BD11969114259D199
:10031400DA68344B1A4214BF2923142300FB03F672
:10032400019B9E4220D96B1C05D05DB1FFF7BAFF3B
:10033400C01B854206D3019B01330193F0E7681C7F
:100344000FD045B9A36A032043F00403A36200233A
:1003540084F82430BFE7FFF7A5FFC01B8542F1D323
:10036400226813689907EAD56FF0120322681360B4
:10037400A36A43F40073A362936803F46023B3F5A0
:10038400602F25D1E3681BBBA36A23F48073A362A7
:10039400A06A10F480501BD1A36A43F00103A36246
:1003A40099E71969114203D1D9680E4A11420BD059
:1003B40019690D4A114209D1DB68134214BFFC23A9
:1003C4005423ABE72923A9E75423A7E7FC23A5E794
:1003D400002080E71000002024499224922449122E
:1003E4002449920092244900499224000368D86C5D
:1003F40070470000002373B5019390F82430012B5B
:1004040074D001234D6880F82430062D02684FEA29
:1004140085030C6825D82B441F25566B053B9D404E
:1004240026EA050504FA03F32B435363092C4FEA28
:1004340044038D682FD907262344D1681E3B9E4070
:1004440021EA060105FA03F30B43D360A4F1100378
:10045400012B2BD90023002280F82420184602B057
:1004640070BD0C2D0BD82B441F25166B233B9D40D0
:1004740026EA050504FA03F32B431363D6E72B445A
:100484001F25D66A413B9D4026EA050504FA03F37D
:100494002B43D362CAE70726116923449E4021EA0D
:1004A400060105FA03F30B431361CFE7104B9A429D
:1004B40016D193681B02CDD49368102C43F4000327
:1004C4009360C7D10B4B0C4A1B68B3FBF2F20A23AF
:1004D40053430193019B002BBCD0019B013BF8E7E4
:1004E400836A43F0200383620123B4E70223B5E760
:1004F400002401401000002040420F00002373B587
:100504000193036804469A68D20702D5002002B01A
:1005140070BD9A6842F001029A60124B124A1B683D
:10052400B3FBF2F30193019BC3B9FFF7BBFE06468D
:1005340023689D6815F00105E8D1FFF7B3FE801B21
:100544000228F5D9A36A84F8245043F01003A36267
:10055400E36A012043F00103E362D8E7019B013B16
:10056400E0E700BF1000002040420F0090F8243064
:1005740010B5012B044654D0012380F82430FFF732
:10058400BDFF002849D1A36A274A23F4407323F00E
:10059400010343F48073A3622368934204D1234983
:1005A4004A6812F4702F2ED1A26A22F48012A26239
:1005B4005A68520541BFA26A22F4405242F4805262
:1005C400A262A26A12F480521CBFE26A22F00602FE
:1005D400E262002284F824206FF002021A609A6812
:1005E40002F46022B2F5602F13D10F4A934205D171
:1005F400A2F58062526812F4702F0AD19A6842F40C
:10060400A0029A6010BDA26A42F48012A2624A68F3
:10061400CFE79A6842F48012F3E7002384F8243089
:1006240010BD022010BD00BF00280140002401407D
:1006340038B5036804469A68D20701D4002038BD4F
:100644009A6822F001029A60FFF72CFE054623689F
:100654009B68DB07F2D5FFF725FE401B0228F6D97D
:10066400A36A012043F01003A362E36A43F0010389
:10067400E36238BDF8B50446002877D0836A23B90D
:10068400C36280F8243001F087FA2046FFF7D0FFD8
:10069400A36A13F010036BD1002869D1A26A374909
:1006A40022F4885222F0020242F00202A26294E88A
:1006B40024008A42E16904D1B1F5402F08BF4FF408
:1006C4000021E66845EA46052943A568B5F5807F1B
:1006D40035D0012D08BF4FF480736769012F06D10F
:1006E4007EBBA669013E43EA463343F40063566881
:1006F400B5F5807F26F4694643EA0603536096689D
:100704001F4B03EA060343EA0103936001D0012D62
:1007140020D12369013B1B05D56A25F470052B43C1
:10072400D3629268174B1340994215D10023E362B8
:10073400A36A23F0030343F00103A362F8BD2B462D
:10074400CBE7A66A46F02006A662E66A46F00106F2
:10075400E662CCE70023DFE7A36A23F0120343F049
:100764001003A362E36A43F00103E3620120F8BDCE
:10077400A36A43F01003A362F8E700BF003C014002
:10078400FDF7E1FFFE0E1FFF074A0002D36800F4E5
:10079400E06023F4E0631B041B0C43F0BF6343F4E9
:1007A40000330343D360704700ED00E0174B30B5CE
:1007B400DC68C4F30224C4F10703251D042B28BFFD
:1007C4000423062D4FF0010598BF002405FA03F316
:1007D40003F1FF3388BF033C1940A14005FA04F438
:1007E400013C2240002842EA01024FEA0212AFBF54
:1007F40000F16040064B00F00F00D2B2A5BFD2B2A8
:1008040000F561401A5480F8002330BD00ED00E08B
:1008140014ED00E00123420900F01F0003FA00F088
:10082400014B43F82200704700E100E00138B0F1C9
:10083400807F0AD2F021064B064A586082F82310C2
:100844000020072298601A6070470120704700BF9B
:1008540010E000E000ED00E0044B04281A680CBF2F
:1008640042F0040222F004021A60704710E000E033
:10087400704708B5FFF7FCFF08BD00002DE9F74FEE
:10088400002216466C4F6D4BDFF8B8E1DFF8B8C1B3
:100894004FF001080C6808FA06F808EA0404A045B9
:1008A40040F085804D68122D00F0B78000F28D80F5
:1008B400022D00F0AF8000F28180002D00F09180C5
:1008C400012D00F0A5804FF00F09FF2C93BF824645
:1008D40006F18045083DD0F800B092BFB500D0F8CD
:1008E40004B0AD0009FA05F82BEA080802FA05F588
:1008F40088BF00F1040A48EA0505CAF80050D1F897
:1009040004A01AF0805F52D0BD6926F0030845F0B8
:100914000105BD61BD6908F1804805F00105019537
:1009240008F5803806F0030B019D4FEA8B0BD8F8CD
:10093400085009FA0BF925EA0909414DA84271D07A
:1009440005F58065A8426FD005F58065A8426DD095
:1009540005F58065A8426BD005F58065A84269D08D
:1009640070450CBF0525062505FA0BF545EA090572
:10097400C8F808501D681AF4803F14BF2543A543E6
:100984001D605D681AF4003F14BF2543A5435D60F4
:100994009D681AF4801F14BF2543A5439D60DD683C
:1009A4001AF4001F14BF2C4325EA0404DC6001364A
:1009B400102E7FF46DAF03B0BDE8F08F032D25D06A
:1009C400112D80D1CA6804327DE7654509D012D85B
:1009D400DFF878904D4504D009F580394D457FF412
:1009E40072AF8A68E2B1012A0CBFC0F81080C0F867
:1009F4001480082267E7DFF858904D45F1D009F5D7
:100A040080394D45EDD0A9F58019E7E700225AE772
:100A1400CA6858E7CA68083255E7CA680C3252E710
:100A2400042250E700259FE701259DE702259BE767
:100A3400032599E7042597E70010024000040140CC
:100A440000080140001C01400000211000001110AA
:100A5400000031100AB1016170470904FBE700008E
:100A640003682DE9F341DB07054610D42B689F0783
:100A74005ED42B68190700F195802B685A0700F1A2
:100A8400BF80EA69002A40F02D81002014E0904CD8
:100A9400636803F00C03042B07D0636803F00C03B2
:100AA400082B0CD16368DE0309D523689C03DDD5CC
:100AB4006B68002BDAD1012002B0BDE8F0816B68CD
:100AC400B3F5803F10D1236843F480332360FFF7EC
:100AD400E9FB064623689803C8D4FFF7E3FB801BB1
:100AE4006428F7D90320E7E79BB9236823F480330C
:100AF4002360236823F480232360FFF7D3FB064697
:100B040023689903B2D5FFF7CDFB801B6428F7D97E
:100B1400E8E7B3F5A02F236803D143F480232360CF
:100B2400D1E723F480332360236823F48023CDE7C3
:100B3400674C636813F00C0F07D0636803F00C0371
:100B4400082B10D16368DA030DD423689B0702D500
:100B54002B69012BAFD123686A6923F0F80343EAB8
:100B6400C203236085E72A695A4B6AB101221A60DD
:100B7400FFF798FB064623689F07ECD4FFF792FB28
:100B8400801B0228F7D9ADE71A60FFF78BFB0646F6
:100B9400236898077FF56DAFFFF784FB801B02285D
:100BA400F6D99FE7AA694A4C4B4BDAB101221A6085
:100BB400FFF778FB0646636A9B070DD54FF4FA529C
:100BC400464B1B68B3FBF2F3019300BF019B5A1E13
:100BD4000192002BF9D150E7FFF764FB801B022838
:100BE400E9D97FE71A60FFF75DFB0646636A9F0752
:100BF4007FF543AFFFF756FB801B0228F6D971E758
:100C0400334CE369D80024D40127E36943F08053CB
:100C1400E361E36903F080530093009B304E336833
:100C2400D90518D5EB68012B26D1236A43F00103BB
:100C34002362FFF737FB41F288368046236A9B071D
:100C44003FD5002F3FF41DAFE36923F08053E361E8
:100C540017E70027E2E7336843F480733360FFF754
:100C640021FB80463368DA05DCD4FFF71BFBA0EBDD
:100C740008006428F6D935E7ABB9236A41F288380D
:100C840023F001032362236A23F004032362FFF7A2
:100C940009FB0646236A9807D3D5FFF703FB801B9D
:100CA4004045F7D91EE7052B236A03D143F004031B
:100CB4002362BAE723F001032362236A23F00403C7
:100CC400B6E7FFF7EFFAA0EB0800B042B6D909E7A0
:100CD4000010024000004242800442421000002002
:100CE40000700040224C636803F00C03082B3FF4AF
:100CF400E2AE00231F4E022A33602BD1FFF7D2FA53
:100D04000746236899011FD42B6AB3F5803F05D1A8
:100D14006268A96822F400320A436260696A626800
:100D24000B4322F474121343636001233360FFF70F
:100D3400B9FA054623689A013FF5A7AEFFF7B2FA60
:100D4400401B0228F6D9CDE6FFF7ACFAC01B0228F7
:100D5400D7D9C7E6FFF7A6FA054623689B017FF5B6
:100D640094AEFFF79FFA401B0228F6D9BAE600BFFB
:100D7400001002406000424230B5194B87B002AC0B
:100D840003F11005224618685968083303C2AB42C0
:100D94001446F7D101238DF80430022311498DF84C
:100DA40005304B6803F00C02082A17D1C3F38342C1
:100DB40006A80244DB0312F8102C0CD54B680A4831
:100DC400C3F34043504306AA134413F8143CB0FB46
:100DD400F3F007B030BD05485043FAE70248F8E79E
:100DE400BC3400080010024000127A0000093D00E3
:100DF4004D4A2DE9F0411368054603F007038B4281
:100E04000E4628D32A68910732D4D20738D4464AEA
:100E1400136803F007039E4273D32A68434C12F00D
:100E2400040F79D1130706D563682A6923F4605344
:100E340043EAC2036360FFF79FFF63683C4AC3F35E
:100E44000313D35CD8403B4B18600020FFF7E8F94C
:100E54000020BDE8F081136823F007030B431360FF
:100E6400136803F007039942CCD00120BDE8F08158
:100E74002E49A8684B6823F0F00303434B60C4E792
:100E84006A682A4C012A23681CD113F4003FECD071
:100E9400636841F2883823F0030313436360FFF768
:100EA40001FA6B680746012B14D1636803F00C0345
:100EB400042BACD0FFF7F6F9C01B4045F5D903204D
:100EC400BDE8F081022A02D113F0007FDFE713F0BE
:100ED400020FDCE7022B0FD1636803F00C03082B2D
:100EE40095D0FFF7DFF9C01B4045F5D9E7E7FFF7D9
:100EF400D9F9C01B4045E2D8636813F00C0FF6D152
:100F040085E7136823F0070333431360136803F082
:100F140007039E42A9D180E76368E96823F4E0638C
:100F24000B4363607EE700BF0020024000100240D4
:100F3400ED34000810000020014B1868704700BF12
:100F440010000020044B054A5B68C3F30223D35C02
:100F5400034A1068D840704700100240FD3400086E
:100F640010000020044B054A5B68C3F3C223D35C22
:100F7400034A1068D840704700100240FD3400084E
:100F84001000002003682DE9F341D907054620D558
:100F9400354CE369DA0032D40127E36943F0805326
:100FA400E361E36903F080530193019B2F4E33689F
:100FB400DB0526D5236A13F4407336D1236A6A68A5
:100FC40023F44073134323621FB1E36923F0805376
:100FD400E3612868830706D5234AA968536823F484
:100FE40040430B43536010F010001BD01E4A696944
:100FF4005368002023F480030B43536012E000275E
:10100400D4E7336843F480733360FFF74BF98046C9
:101014003368D805CED4FFF745F9A0EB080064285F
:10102400F6D9032002B0BDE8F0816A6802F4407288
:101034009342C3D001200E4A236A1060002023F497
:10104400407110602162D907B8D5FFF72BF941F23E
:1010540088380646236A9A07B0D4FFF723F9801B21
:101064004045F7D9DDE700BF0010024000700040A2
:1010740040044242024670B53B4B86B002AD03F1D8
:1010840010062C4618685968083303C4B342254631
:10109400F7D101238DF804300223501E8DF805305A
:1010A4000F285ED8DFE800F032515D2D5D5D5D2DC7
:1010B4005D5D5D5D5D5D5D082C4B5968186810F0E1
:1010C400807037D0C1F3834206A8024412F8100C92
:1010D400CA0341BF5A6806A9C2F34042521844BF2A
:1010E40012F8141C224A5B684CBFB2FBF1F2214A8D
:1010F4005B0202FB00F01DD403234000B0FBF3F0BD
:1011040018E006B0BDE87040FFF736BE40F2023189
:10111400164A136A1940B1F5817F1FD003F4407356
:10112400B3F5007F08D149F64040536A13F0020F2B
:1011340008BF002006B070BDB3F5407F11D113681D
:101144004FF2244013F4003FF2E7FFF70BFF074B85
:101154005B68C3F3813301335B00CFE74FF4004096
:10116400E8E70020E6E700BFCC34000800100240A6
:1011740000127A0000093D00036A70B523F00103F0
:101184000362036A446882690D6822F073022A4389
:101194008D6823F002032B430E4DA84202D00E4E5D
:1011A400B04210D1CE6823F008033343A84223F0A1
:1011B400040302D0084DA84205D14D698E6924F478
:1011C400407435432C43446082614A68426303623D
:1011D40070BD00BF002C014000340140036A70B5AB
:1011E40023F480730362036A4468C2690D6822F0C1
:1011F40073022A438D6823F4007343EA0523114DD7
:10120400A84203D005F50065A84214D1CD6823F4A3
:10121400006343EA05230B4D23F48063A84203D003
:1012240005F50065A84206D14D698E6924F4405441
:10123400354344EA05144460C2614A68C2630362E8
:1012440070BD00BF002C0140036A30B523F4805305
:101254000362036A4468C2690D6822F4E64242EA02
:1012640005228D6823F4005343EA0533084DA84250
:1012740003D005F50065A84204D14D6924F48044E7
:1012840044EA85144460C2614A680264036230BD62
:10129400002C014003680020DA6842F00102DA60A1
:1012A4001A6842F001021A60704790F83C3070B539
:1012B400012B4FF002031CD0012280F83D3003685B
:1012C40080F83C209A6822F47F4222F077029A60E8
:1012D4000A68402A79D019D8102A00F093800AD8D5
:1012E400002A00F08980012380F83D30002380F833
:1012F4003C30184670BD202A00F08A80302AF2D192
:101304009A6822F0700242F0370236E0702A36D032
:101314001BD8502A42D0602AE5D11C6A4D6824F0BB
:101324001004CE681C6299691A6A21F4704122F093
:10133400A00242EA051241EA063199611A629A68EA
:1013440022F0700242F0670217E0B2F5805F11D01C
:10135400B2F5005FC7D18A684D689C68C9682A43A2
:1013640024F47F4442EA012222439A609A6842F4B8
:10137400804202E09A6822F007029A60B3E78A6822
:101384004D689C68C9682A4324F47F4442EA0122D8
:1013940022439A609A6842F07702EEE74C68CE687E
:1013A400196A1D6A21F00A0125F001051D629A6976
:1013B400214322F0F00242EA06129A6119629A6805
:1013C40022F0700242F05702D7E74C68CE68196ADF
:1013D4001D6A21F00A0125F001051D629A69214365
:1013E40022F0F00242EA06129A6119629A6822F027
:1013F400700242F04702C0E79A6822F0700242F09D
:101404000702BAE79A6822F0700242F01702B4E7C2
:101414009A6822F0700242F02702AEE770477047E4
:10142400704770477047036810B51A6904469107FE
:101434000ED5DA6892070BD56FF002021A61012209
:101444009B6902779B0777D0FFF7EAFF0023237796
:1014540023681A69500710D5DA6851070DD56FF063
:1014640004021A6102229B69227713F4407F20460A
:1014740068D0FFF7D5FF0023237723681A69120782
:101484000FD5DA6810070CD56FF008021A61042230
:10149400DB692277990720465AD0FFF7C1FF002362
:1014A400237723681A69D20610D5DA68D0060DD5D9
:1014B4006FF010021A610822DB69227713F4407F6F
:1014C40020464BD0FFF7ACFF0023237723681A692B
:1014D400D10708D5DA68D20705D56FF00102204696
:1014E4001A61FFF79BFF23681A69100608D5DA68AA
:1014F400110605D56FF0800220461A6100F071F9DB
:1015040023681A69520608D5DA68500605D56FF0C3
:10151400400220461A61FFF785FF23681A69910685
:1015240022D5DA6892061FD56FF020022046BDE866
:1015340010401A6100F054B9FFF771FF2046FFF71D
:1015440070FF83E7FFF76BFF2046FFF76AFF92E720
:10155400FFF765FF2046FFF764FFA0E7FFF75FFF93
:101564002046FFF75EFFAFE710BD0000244A036882
:10157400904212D002F5006290420ED0B0F1804F3A
:101584000BD0A2F59832904207D002F580629042C7
:1015940003D002F5806290421DD14A6823F07003A3
:1015A4001343174A904212D002F5006290420ED0C3
:1015B400B0F1804F0BD0A2F59832904207D002F5DB
:1015C4008062904203D002F58062904203D1CA68DF
:1015D40023F4407313434A6923F0800313430360E5
:1015E4008B68C3620B688362054B984203D003F592
:1015F4000063984201D10B6903630123436170477F
:10160400002C014010B50446A0B190F83D3003F021
:10161400FF021BB980F83C2000F0CAFD02232068B9
:1016240084F83D30211DFFF7A1FF0123002084F839
:101634003D3010BD012010BD10B50446A0B190F896
:101644003D3003F0FF021BB980F83C2000F07CFD24
:101654000223206884F83D30211DFFF787FF012312
:10166400002084F83D3010BD012010BD036A70B520
:1016740023F010030362036A446882690D6822F44C
:10168400E64242EA05228D6823F0200343EA05136B
:10169400104DA84203D005F50065A84214D1CD68C9
:1016A40023F0800343EA05130A4D23F04003A842C4
:1016B40003D005F50065A84206D14D698E6924F46E
:1016C4004064354344EA8504446082614A68826325
:1016D400036270BD002C014038B590F83C300446DC
:1016E400012B4FF0020025D0012384F83D0084F83B
:1016F4003C300C2A18D8DFE802F0071717171E171A
:1017040017172F17171740002068FFF735FD2368B8
:1017140009699A6942F008029A619A6922F00402FE
:101724009A619A690A439A610123002084F83D3042
:1017340084F83C0038BD2068FFF798FF23680969E6
:101744009A6942F400629A619A6922F480629A6109
:101754009A6942EA0122E6E72068FFF73FFD236821
:101764000969DA6942F00802DA61DA6922F00402EE
:10177400DA61DA690A43DA61D6E72068FFF764FDC3
:1017840023680969DA6942F40062DA61DA6922F4E9
:101794008062DA61DA6942EA0122ECE790F83C30CF
:1017A40010B5012B4FF0020318D080F83D300368C8
:1017B4000C685A68496822F070025A605A682243D9
:1017C4005A609A6822F080029A609A680A439A6082
:1017D400012380F83D30002380F83C30184610BDCA
:1017E400704770472DE9F0470568C2682B690169A5
:1017F40023F4405313432B618368EA680B43416924
:1018040022F4B05222F00C020B431343EB606B69D9
:10181400826923F4407313436B61404B81469D42BC
:101824004FF0190446D1FFF79DFB04FB00F3D9F8F0
:1018340004604FF06408B600B3FBF6F3B3FBF8F3AF
:101844001E01FFF78FFB6043D9F804309B00B0FB07
:10185400F3F7FFF787FB6043D9F804309B00B0FB34
:10186400F3F3B3FBF8F308FB13731B013233B3FB3D
:10187400F8F303F0F007FFF775FB6043D9F8042091
:101884009200B0FBF2FAFFF76DFB6043D9F8043025
:101894009B00B0FBF3F3B3FBF8F308FB13A31B01AA
:1018A4003233B3FBF8F303F00F033B433344AB6031
:1018B400BDE8F087FFF746FB04FB00F3D9F80460AA
:1018C4004FF06408B600B3FBF6F3B3FBF8F31E0164
:1018D400FFF738FB6043D9F804309B00B0FBF3F703
:1018E400FFF730FB6043D9F804309B00B0FBF3F3FF
:1018F400B3FBF8F308FB13731B013233B3FBF8F3A8
:1019040003F0F007FFF71EFB6043D9F804209200B0
:10191400B0FBF2FAFFF716FBB7E700BF003801404F
:10192400F8B504460E4617461D4621680B6836EA8C
:10193400030301D10020F8BD6B1CF7D095B92368CF
:101944000320DA6822F4D072DA605A6922F00102C4
:101954005A61202384F8393084F83A30002384F81B
:101964003830F8BDFEF79EFCC01B8542DDD2E6E7A9
:1019740010B5044640B390F8393003F0FF021BB9A8
:1019840080F8382000F046FD2423226884F839309A
:10199400D368204623F40053D360FFF723FF236862
:1019A40000201A6922F490421A615A6922F02A022C
:1019B4005A61DA6842F40052DA602023E06384F862
:1019C400393084F83A3010BD012010BD2DE9F041C2
:1019D4001F4690F839300446202B0D4690464ED1D0
:1019E400002949D0002A47D090F83830012B46D03E
:1019F400012380F838300023C363212380F8393071
:101A0400FEF750FC0646A4F82480A4F82680E38C54
:101A14009BB26BB93B46324640212046FFF780FF1C
:101A2400A8B9202384F8380084F83930BDE8F0815F
:101A3400E38C3246013B9BB2E384A3688021B3F577
:101A4400805F20463B460ED1FFF76AFF10B10320AA
:101A5400BDE8F0812B882268C3F30803536023692F
:101A640043B90235D3E7FFF75BFF0028EFD12368C2
:101A74002A785A600135CAE70120BDE8F0810220C6
:101A8400BDE8F0811FB51348134B4FF46022036087
:101A940000238360C360436143600123C261036127
:101AA400FEF7E8FD18B14D210C4800F04BFA0A236B
:101AB400019301230293052301A906480393FEF72A
:101AC40099FC18B15721054800F03CFA05B05DF8BF
:101AD40004FB00BFD400002000240140DC340008D3
:101AE4001FB51348134B4FF4602203600023836037
:101AF400C360436143600123C2610361FEF7BAFD21
:101B040018B16B210C4800F01DFA04230193012342
:101B14000293052301A906480393FEF76BFC18B151
:101B24007521054800F00EFA05B05DF804FB00BF0E
:101B3400A400002000280140DC3400081FB513482D
:101B4400134B4FF46022036000238360C36043613E
:101B540043600123C2610361FEF78CFD18B1892142
:101B64000C4800F0EFF90C230193012302930523A1
:101B740001A906480393FEF73DFC18B193210548DB
:101B840000F0E0F905B05DF804FB00BF040100209B
:101B9400003C0140DC34000800B503681E4A89B0EB
:101BA40093420FD11D4B9A6942F400729A619B696A
:101BB40003F400730193019B03230493059304A985
:101BC400174812E0174A934214D1144B16489A69E5
:101BD40004A942F480629A619B6903F480630293CE
:101BE400029B1023049303230593FEF747FE09B0D9
:101BF4005DF804FB0D4A9342F9D1084B9A6942F40B
:101C040000429A619B6903F400430393039B0C23F2
:101C140004930323D2E700BF0024014000100240D4
:101C2400001001400028014000080140003C014030
:101C3400012330B585B00293052303930A2304AC32
:101C440044F80C3D21461748FEF7D4FB1548FEF72F
:101C54008DFC144D4FF47A712846FEF729FB0028B9
:101C6400F8D11048FEF7C2FB0F4B2146188002231F
:101C74000293052303930B230A480193FEF7BAFB4F
:101C84000848FEF773FC074C4FF47A712046FEF7C0
:101C94000FFB0028F8D10348FEF7A8FB034B18807C
:101CA40005B030BDD4000020080000200A00002048
:101CB400012330B585B00293052303930C2304ACB0
:101CC40044F80C3D21461748FEF794FB1548FEF7EF
:101CD4004DFC144D4FF47A712846FEF7E9FA0028BA
:101CE400F8D11048FEF782FB0F4B214618800223DF
:101CF4000293052303930D230A480193FEF77AFB0D
:101D04000848FEF733FC074C4FF47A712046FEF77F
:101D1400CFFA0028F8D10348FEF768FB034B18807C
:101D240005B030BD040100200C0000200E0000208E
:101D3400324B2DE9F0419A6988B042F010029A6161
:101D44009A69DFF8C48002F010020192019A9A693C
:101D54002B4C42F004029A619A692A4D02F0040263
:101D64000292029A9A69404642F008029A619B697B
:101D7400002203F00803039346F2C011039BFEF70D
:101D840069FE204600220321FEF764FE0022284655
:101D94004FF47071FEF75EFE0127022646F2C0136F
:101DA40004A94046049305970796FEF767FD0323AD
:101DB40004A920460493002405970796FEF75EFDC8
:101DC4004FF4406304A94046049305940694FEF737
:101DD40055FD202304A92846049305940694FEF790
:101DE4004DFD4FF4707304A9284604930597079694
:101DF400FEF744FD08B0BDE8F08100BF00100240CA
:101E040000080140000C014000100140012307B507
:101E140002A901F8010D1A460248FFF7D7FD03B0E5
:101E24005DF804FB34020020102330B597B0119301
:101E340000230224012514934FF400130CA80C94DE
:101E4400109513941593FEF70BFE00B1FEE70F23D4
:101E540001934FF4806303900590294601A80294EE
:101E64000493FEF7C5FF00B1FEE74FF4804306A8D4
:101E740006940893FFF786F8044600B1FEE7FFF7DF
:101E84005BF84FF47A73B0FBF3F0FEF7CFFC042059
:101E9400FEF7E2FC224621464FF0FF30FEF786FCB7
:101EA40017B030BD08B5FEF7DFF9FFF7BDFFFFF748
:101EB4003FFFFFF7E7FDFFF713FEFFF73FFE00F0DC
:101EC400DDF900F013FA00F04BFA00F007F900F026
:101ED40081FA1648FFF7DEF9154B00211B68154CF3
:101EE400986800F033FB01224FF400511248FEF7CA
:101EF400B1FD124D204601224021FEF7ABFD2046E4
:101F040001228021FEF7A6FD204601224FF48071B4
:101F1400FEF7A0FD204601224FF40071FEF79AFD62
:101F24002988074800F0FAFAE4E700BF34010020EA
:101F340014000020000C01400010014008000020A3
:101F4400E9340008FEE70000204B07B59A69032036
:101F540042F001029A619B6903F001030193019B22
:101F6400FEF712FC00226FF00B001146FEF71EFC78
:101F740000226FF00A001146FEF718FC00226FF0F1
:101F840009001146FEF712FC00226FF0040011460E
:101F9400FEF70CFC00226FF003001146FEF706FC6E
:101FA40000226FF001001146FEF700FC00224FF002
:101FB400FF301146FEF7FAFB054A536823F0E0634D
:101FC40043F08063536003B05DF804FB00100240EB
:101FD400000001407047FEE7FEE7FEE7FEE77047BA
:101FE4007047704708B5FEF751F9BDE80840FEF7A1
:101FF40040BC000008B50448FFF715FAFFF718FEC7
:10200400BDE80840FFF754BE3401002070B50E4609
:1020140015460C46A31B9D4201DC284670BDAFF358
:10202400008004F8010BF5E770B50E4615460C4622
:10203400A31B9D4201DC284670BD14F8010BFFF779
:10204400E5FEF5E708B50A4B0246196809B90949DE
:1020540019606946186802448A4206D900F02CFACD
:102064000C2303604FF0FF3008BD1A6008BD00BFA9
:1020740094000020780200204FF0FF3070474FF4A6
:10208400005300204B6070470120704700207047C8
:102094000F4B1A6842F001021A6059680D4A0A404F
:1020A4005A601A6822F0847222F480321A601A6824
:1020B40022F480221A605A6822F4FE025A604FF415
:1020C4001F029A604FF00062034B9A60704700BF92
:1020D400001002400000FFF800ED00E07FB5092386
:1020E4001648174941F63F7280E80A000023C2608F
:1020F400836003618361FFF785FA18B18A2111486F
:10210400FFF720FF4FF4805306A941F8103D0B4818
:10211400FFF7CBF818B190210A48FFF713FF00230B
:102124006946064800930193FFF738FB18B19721DD
:102134000448FFF707FF07B05DF804FB34010020F3
:102144000008004005350008036884B0B3F1804FEF
:102154000CD103F50433DA6942F00102DA61DB6978
:1021640003F001030193019B04B070470D4A9342AD
:102174000AD10D4BDA6942F00202DA61DB6903F03D
:1021840002030293029BEFE7084A9342ECD1064B09
:10219400DA6942F00802DA61DB6903F008030393A9
:1021A400039BE1E70004004000100240000C0040E3
:1021B40007B50D4B02689A4212D103F50233DA696E
:1021C4001E2042F00402DA610022DB69114603F0AA
:1021D40004030193019BFEF7E9FA1E20FEF71AFBA4
:1021E40003B05DF804FB00BF000800401FB503689E
:1021F400B3F1804F15D14FF48063009302236946F5
:10220400184801930393FEF739FB174A536823F4E4
:10221400407343F0E06343F40073536005B05DF82A
:1022240004FB124A934210D14FF40073009302232B
:1022340069460F4801930393FEF720FB0A4A53684B
:1022440043F0E06343F44063E7E70A4A9342E5D18D
:102254000823009302236946074801930393FEF77A
:102264000DFBDBE7000C01400000014000040040CE
:1022740000100140000C00400008014010B54FF070
:102284008043002417488AB080E818008460C46042
:1022940004618461FFF7D0F918B142211248FFF7B5
:1022A40051FE01A90F4801940294FFF777FA18B17F
:1022B40049210D48FFF746FE6023039300230822BB
:1022C40003A90848049305930793FFF705FA18B187
:1022D40052210548FFF736FE0248FFF787FF0AB090
:1022E40010BD00BFF40100200535000810B500241E
:1022F4001848194B8AB080E818008460C4600461EF
:102304008461FFF799F918B166211448FFF71AFEA2
:1023140001A9104801940294FFF740FA18B16D2105
:102324000E48FFF70FFE60230C22039300230DEBEE
:1023340002010848049305930793FFF7CDF918B1F8
:1023440076210648FFF7FEFD0248FFF74FFF0AB06B
:1023540010BD00BFB4010020000400400535000892
:1023640010B500241848194B8AB080E8180084601E
:10237400C46004618461FFF75FF918B1A9211448AE
:10238400FFF7E0FD01A9104801940294FFF706FA53
:1023940018B1B0210E48FFF7D5FD60230C2203933A
:1023A40000230DEB02010848049305930793FFF7FC
:1023B40093F918B1B9210648FFF7C4FD0248FFF7A5
:1023C40015FF0AB010BD00BF74010020000C0040CE
:1023D4000535000808B54FF4165E0B480B4B0C226C
:1023E40080E80840002342618360C3600361836125
:1023F400C361FFF7BDFA28B1BDE808404221044893
:10240400FFF7A0BD08BD00BF340200200038014022
:10241400123500087FB50268124B9A421FD103F5AA
:1024240058439A6902A942F480429A619B690E4812
:1024340003F480430193019B4FF40073029302233E
:10244400039303230593FEF719FA4FF48063029371
:10245400002302A9044803930493FEF70FFA07B07C
:102464005DF804FB0038014000080140002103E04E
:102474000B4B5B58435004310A480B4B42189A42A9
:10248400F6D30A4A02E0002342F8043B084B9A427E
:10249400F9D3FFF7FDFD00F015F8FFF703FD7047D2
:1024A400C4350008000000207800002078000020D7
:1024B40078020020FEE70000014B1868704700BF57
:1024C4001400002070B500250C4E0D4CA41BA41064
:1024D400A54209D100F0E4FF00250A4E0A4CA41BD2
:1024E400A410A54205D170BD56F825309847013592
:1024F400EEE756F8253098470135F2E7BC35000879
:10250400BC350008BC350008C03500080346024449
:10251400934200D1704703F8011BF9E70FB40A4B4B
:1025240013B51C6824B1A36913B9204600F0B6F9A9
:1025340005AB049AA1682046019300F077FB02B032
:10254400BDE8104004B070471400002000294FF487
:1025540080630CBF0222002200F000B82DE9F7438B
:102564001D46514B04461E680F46904626B1B3697A
:1025740013B9304600F092F94C4B9C4252D1746826
:10258400B8F1020F06D0B8F1010F00F28980002DD6
:10259400C0F286802146304600F016F9616B41B1E5
:1025A40004F14403994202D0304600F06DFA00234E
:1025B40063630023A3616360A3891B0603D52169B8
:1025C400304600F061FAA389B8F1020F23F44A639C
:1025D40023F00303A3815DD001AB6A462146304654
:1025E40000F0E6F9A3891843A0812DBB009D28467D
:1025F40000F042FA074600284ED1DDF80090A945C4
:102604003CD14FF0FF30A38943F00203A3810023A0
:10261400A36004F14703236023610123636103B0D2
:10262400BDE8F083224B9C4201D1B468A8E7214B5A
:102634009C4208BFF468A3E7002FD8D0B36913B94C
:10264400304600F02BF9B8F1010F08BFA3892760C9
:1026540004BF43F00103A381A389276113F0080099
:1026640065611BD013F001004FF000031FBF6D42E2
:10267400A360A561184608BFA560D0E7484600F0EE
:10268400FBF907460028BCD0A3894D4643F08003DC
:10269400A381D3E70020B6E7A946F5E7A060BEE72B
:1026A4004FF0FF30BBE700BF14000020483500089E
:1026B40068350008283500088A892DE9F041054667
:1026C40010070C465AD44B68002B05DC0B6C002B0E
:1026D40002DC0020BDE8F081E66A002EF9D0002378
:1026E40012F480522F682B6033D0606DA3895A078F
:1026F40005D56368C01A636B0BB1236CC01A002341
:102704000246E66A216A2846B047431CA38906D1DB
:1027140029681D294BD82B4ACA40D60747D5002221
:1027240062602269D904226004D5421C01D12B685D
:1027340003B96065616B2F600029CAD004F14403BA
:10274400994202D0284600F09FF900206063BDE85A
:10275400F081216A01232846B047411CC6D12B6869
:10276400002BC3D01D2B01D0162B01D12F60B0E755
:10277400A38943F04003A381BDE8F0810F69002FD2
:10278400A7D0930718BF00230E6808BF4B69A6EBB8
:1027940007080F608B60B8F1000F9ADD43463A4694
:1027A400216A2846A66AB047002807DCA38943F0BB
:1027B4004003A3814FF0FF30BDE8F0810744A8EB4C
:1027C4000008E8E70100402038B50B6905460C46CF
:1027D400DBB118B183690BB900F060F80C4B9C4273
:1027E40009D16C68B4F90C307BB121462846BDE8A8
:1027F4003840FFF761BF074B9C4201D1AC68F1E759
:10280400054B9C4208BFEC68ECE7002038BD00BFD4
:10281400483500086835000828350008014900F0EB
:10282400A9B800BFCD270008002310B504460360F3
:102834004360836081814366C28103614361836134
:10284400194608225C30FFF761FE054B246263627F
:10285400044BA362044BE362044B236310BD00BF2B
:10286400AD310008CF310008073200082B320008D0
:1028740070B568254A1E55430E4605F1740100F0F3
:102884004FF9044640B1002180E842000C30A060BA
:1028940005F16802FFF73AFE204670BD836910B562
:1028A400044633BB8364C3640365124B124A1B683A
:1028B4008262984204BF0123836100F01FF86060C4
:1028C400204600F01BF8A060204600F017F8002214
:1028D400E06004216068FFF7A7FF01220921A068D6
:1028E400FFF7A2FF02221221E068FFF79DFF0123F8
:1028F400A36110BD2435000821280008F8B51C4B3D
:1029040007461E68B36913B93046FFF7C7FF483658
:10291400B4687368013B03D5336833B13668F7E7AD
:10292400B4F90C506DB16834F4E704213846FFF76C
:102934009FFF30600028F1D10C2304463B60204601
:10294400F8BD4FF6FF73E38101236566A38125601B
:10295400A560656025616561A5610822294604F1C9
:102964005C00FFF7D3FD6563A563A564E564E6E752
:10297400243500082DE9F84380468946002600F1F5
:10298400480414B93046BDE8F883A5686768013F78
:1029940001D52468F5E7AB89012B07D9B5F90E30C9
:1029A400013303D029464046C84706436835EEE75D
:1029B40070B50E46B1F90E1090B0002914461D46AC
:1029C40007DA00232B60B3891A0610D44FF480630E
:1029D4000EE001AA00F00EFD0028F2DB029A02F4D8
:1029E4007042A2F500535A425A412A60EEE740234E
:1029F4000020236010B070BD8B8973B59D07064617
:102A04000C4607D504F14703236023610123636166
:102A140002B070BD01AB6A46FFF7CAFF00990546D4
:102A2400304600F07DF848B9B4F90C309A05EFD47B
:102A340023F0030343F00203A381E3E70D4BB362E6
:102A4400A389206043F08003A381009B206163611C
:102A5400019B5BB1B4F90E10304600F0DDFC28B1E7
:102A6400A38923F0030343F00103A381A3891D4336
:102A7400A581CDE721280008024B0146186800F023
:102A84004FB800BF1400002038B50546002943D0D4
:102A940051F8043C0C1F002BB8BFE41800F0ECFC08
:102AA4001E4A1368104633B9636014602846BDE8B3
:102AB400384000F0E2BCA3420BD92168621893426B
:102AC40001BF1A685B685218226063600460EDE716
:102AD40013465A680AB1A242FAD919685818A04292
:102AE4000BD120680144581882421960DED1106865
:102AF4005268014419605A60D8E702D90C232B604C
:102B0400D4E7206821188A4201BF11685268091865
:102B1400216062605C60C9E738BD00BF9800002096
:102B240070B5CD1C25F0030508350C2D38BF0C25D8
:102B3400002D064601DBA94203D90C233360002093
:102B440070BD00F099FC234A1468214691B9224CC7
:102B540023681BB9304600F017FB20602946304635
:102B640000F012FB431C26D10C233046336000F0E6
:102B740084FCE4E70B685B1B1AD40B2B0FD90B60A6
:102B8400CC18CD50304600F078FC04F10B00231D26
:102B940020F00700C31A1BD05A42E25070BD8C4289
:102BA4000BBF63684B681360636018BF0C46E9E7AA
:102BB4000C464968CAE7C41C24F00304A04205D0AB
:102BC400211A304600F0E0FA0130CDD02560D9E773
:102BD40070BD00BF980000209C000020936810B4D2
:102BE400013B002B936008DA9469A34202DBCBB269
:102BF4000A2B02D110BC00F01BBB1368581C1060D8
:102C04001970C8B210BC7047F8B506460F46144692
:102C1400D518AC4201D1002007E03A4614F8011B54
:102C24003046FFF7DBFF431CF3D1F8BD2DE9F04F2D
:102C34009DB00C4617460393064618B183690BB939
:102C4400FFF72CFE7C4B9C4257D17468A38918076C
:102C54005DD52369002B5AD00023099320238DF8D6
:102C6400293030234FF0010B8DF82A30B846454601
:102C740015F8013B002B55D1B8EB070A0BD053468E
:102C84003A4621463046FFF7BFFF013000F0C480CA
:102C9400099B5344099398F80030002B00F0BC8042
:102CA40000234FF0FF3204930793059206938DF8A7
:102CB40053301A9305222978604800F0CFFB05F1C0
:102CC4000108049B002831D1D90644BF20228DF885
:102CD40053201A0744BF2B228DF853202A782A2A1E
:102CE4002CD000210A20079AA84698F80030013514
:102CF400303B092B6DD971B326E0514B9C4201D175
:102D0400B468A3E74F4B9C4208BFF4689EE7214692
:102D1400304600F0F1FA00289ED04FF0FF301DB08D
:102D2400BDE8F08F252BA7D0A846A0E7434A454627
:102D3400801A0BFA00F018430490BBE7039A111DA4
:102D440012680391002A01DB079204E0524243F027
:102D540002030792049398F800302E2B10D198F8B0
:102D6400013008F101012A2B37D1039B08F1020835
:102D74001A1D1B680392002BB8BF4FF0FF33059355
:102D8400314D032298F80010284600F067FB40B14B
:102D94004023401B03FA00F0049B08F1010803439D
:102DA400049398F800100622284808F101078DF8CA
:102DB400281000F053FB002834D0254B03BB039BA1
:102DC400073323F0070308330393099B4B44099308
:102DD4004CE700FB0232012186E700230A2518464E
:102DE4000593884698F800200131303A092A03D91E
:102DF400002BC5D00590C3E705FB00200123F0E7B5
:102E040003AB00932246134B04A93046AFF3008072
:102E1400B0F1FF3F8146D8D1A3895B063FF57DAF72
:102E240009987CE703AB009322460A4B04A9304679
:102E340000F08AF8ECE700BF483500088835000840
:102E440068350008283500088E35000892350008DA
:102E5400000000000D2C00082DE9F04791461F46A4
:102E64008A680B6906469342B8BF1346C9F8003016
:102E740091F843200C46DDF8208012B10133C9F8E3
:102E840000302368990642BFD9F800300233C9F8EC
:102E94000030256815F0060507D104F1190AE36826
:102EA400D9F800209B1A9D422ADB94F8433022680B
:102EB400003318BF012392062FD404F1430239468C
:102EC4003046C047013022D02368E56803F006038A
:102ED400042B18BF0025D9F800204FF0000908BFC3
:102EE400AD1AA368226908BF25EAE5759342C4BFF9
:102EF4009B1AED181A344D451BD10020BDE8F0870C
:102F04000123524639463046C047013003D14FF0C1
:102F1400FF30BDE8F0870135C1E73020E11881F8C2
:102F240043005A1C94F845102244023382F843109B
:102F3400C3E70123224639463046C0470130E6D074
:102F440009F10109D7E700002DE9F04317460A7E8D
:102F540085B06E2A984606460C460C9B01F1430E3A
:102F640000F0BC801AD8632A2ED00AD8002A00F0B8
:102F7400C880582A00F08A8004F1420584F842206F
:102F84002AE0642A01D0692AF6D121681A6811F06E
:102F9400800F23D0111D1960136827E0732A00F0F5
:102FA400B48008D86F2A2AD0702AE5D10A6842F082
:102FB40020020A6003E0752A21D0782ADCD1782225
:102FC4006F4984F8452064E01A6801F14205111D37
:102FD4001960136884F842300123A3E011F0400F14
:102FE40002F104011960D7D0B2F90030002B03DAE2
:102FF4002D225B4284F8432062490A2217E02068AC
:10300400196810F0800F03D0081D18600B6806E0E3
:1030140010F0400F01F104001860F7D00B886F2AFC
:1030240014BF0A2208225749002084F84300656827
:10303400002DA560C0F29C80206820F00400206070
:10304400002B3FD1002D40F095807546082A0BD106
:103054002368DA0708D5236962689A42DEBF302301
:1030640005F8013C05F1FF35AEEB05032361CDF80E
:1030740000803B4603AA21463046FFF7EDFE0130AF
:1030840055D14FF0FF3005B0BDE8F08381F84520FD
:103094003C492268186812F0800F00F104051D6095
:1030A40001D0036802E05506FBD50388D00744BF6E
:1030B40042F0200222601BB9226822F02002226022
:1030C4001022B1E77546B3FBF2F002FB1033CB5C80
:1030D40005F8013D03460028F5D1B7E708681A68EA
:1030E40010F0800F496904D0101D1860136819602E
:1030F40007E010F0400F02F1040018601368F6D0E6
:103104001980002375462361B1E71A68111D1960FF
:10311400156800216268284600F0A0F908B1401B38
:10312400606063682361002384F843309FE7236968
:103134002A4639463046C0470130A2D023689B074F
:1031440007D5002504F11909E368039A9B1A9D42E7
:1031540005DBE068039B9842B8BF184693E7012358
:103164004A4639463046C04701308AD00135EBE73C
:10317400002BA7D10B7804F1420584F8423065E7AF
:10318400AA3500089935000838B50023054C0546D2
:1031940008462360FEF756FF431C02D1236803B19F
:1031A4002B6038BD7402002010B50C46B1F90E1026
:1031B40000F064F90028ABBF636DA3891B1823F4E6
:1031C4008053ACBF6365A38110BD2DE9F0411F4658
:1031D4008B890546DB050C46164605D502230022DD
:1031E400B1F90E1000F028F9A389324623F4805374
:1031F400A381B4F90E103B462846BDE8F04100F027
:1032040069B810B50C46B1F90E1000F015F9431C5D
:10321400A38915BF606523F4805343F48053A381CD
:1032240018BFA38110BDB1F90E1000F0D3B800008F
:10323400F8B50E461446054618B183690BB9FFF775
:103244002DFB214B9C422AD16C68A369A360A389FE
:103254001A072ED5236963B323692068F6B2C01A0E
:1032640063693746984204DB21462846FFF7ACFAE7
:1032740028BBA3680130013BA36023685A1C226069
:103284001E706369984204D0A389DB0719D50A2EFE
:1032940017D121462846FFF797FA90B10FE00B4B60
:1032A4009C4201D1AC68D0E7094B9C4208BFEC6852
:1032B400CBE72146284600F01FF80028CCD04FF079
:1032C400FF373846F8BD00BF4835000868350008A8
:1032D4002835000838B50546084611460022054C35
:1032E40022601A46FEF7A0FE431C02D1236803B1F4
:1032F4002B6038BD74020020324B70B51D68064641
:103304000C4625B1AB6913B92846FFF7C7FA2E4B13
:103314009C420FD16C68B4F90C309AB215072CD4C6
:10332400D00611D40922326043F04003A3814FF048
:10333400FF3070BD254B9C4201D1AC68EBE7244BB8
:103344009C4208BFEC68E6E7510712D5616B41B1B6
:1033540004F14403994202D03046FFF795FB002361
:103364006363A38923F02403A38100236360236997
:103374002360A38943F00803A38123694BB9A3897C
:1033840003F42073B3F5007F03D021463046FFF7E2
:1033940033FBA28912F001030CD00023A3606369FC
:1033A4005B42A361236953B9B4F90C3013F0800074
:1033B400BAD170BD920758BF6369A360F2E70020D9
:1033C400F7E700BF140000204835000868350008FE
:1033D4002835000838B50023054C05460846236007
:1033E400FEF74AFE431C02D1236803B12B6038BDAB
:1033F4007402002038B50023064C054608461146E1
:103404002360FEF73CFE431C02D1236803B12B600A
:1034140038BD00BF7402002038B50023054C0546B2
:1034240008462360FEF730FE431C02D1236803B133
:103434002B6038BD7402002038B505460846114695
:103444000022054C22601A46FEF720FE431C02D1DE
:10345400236803B12B6038BD7402002010B5C9B2D3
:1034640002449042034601D1002010BD1C78013073
:103474008C42F6D1184610BD7047704738B50546E2
:10348400084611460022054C22601A46FEF7BEFD8E
:10349400431C02D1236803B12B6038BD74020020A1
:1034A400F8B500BFF8BC08BC9E467047F8B500BF2D
:0834B400F8BC08BC9E467047FD
:1034BC0002030405060708090A0B0C0D0E0F101069
:1034CC0002030405060708090A0B0C0D0E0F101059
:1034DC002E2E5C5372635C6164632E630025640D55
:1034EC0000000000000000000001020304060708B1
:1034FC000900000000010203042E2E5C5372635C71
:10350C0074696D2E63002E2E5C5372635C7573614F
:10351C0072742E63000000001800002000000000F0
:10352C00000000000000000000000000000000008F
:10353C00000000000000000000000000000000007F
:10354C00000000000000000000000000000000006F
:10355C00000000000000000000000000000000005F
:10356C00000000000000000000000000000000004F
:10357C00000000000000000000000000232D302B94
:10358C002000686C4C006566674546470030313258
:10359C0033343536373839414243444546003031AF
:1035AC00323334353637383961626364656600000E
:0435BC0009020008F8
:0435C000E501000819
:1035C40001000000100000000A000A000A000A00BE
:1035D40000A24A041800002000000000483500083A
:1035E40068350008283500080000000000000000CD
:1035F40000000000000000000000000000000000C7
:1036040000000000000000000000000000000000B6
:1036140000000000000000000000000000000000A6
:103624000000000000000000000000000000000096
:0836340000000000000000008E
:04000005080024715A
:00000001FF
